{
	"smart-contract/contracts/EquipmentManagement.sol": {
		"EquipmentManagement": {
			"abi": [
				{
					"inputs": [],
					"stateMutability": "nonpayable",
					"type": "constructor"
				},
				{
					"anonymous": false,
					"inputs": [
						{
							"indexed": true,
							"internalType": "uint256",
							"name": "id",
							"type": "uint256"
						},
						{
							"indexed": false,
							"internalType": "string",
							"name": "name",
							"type": "string"
						},
						{
							"indexed": false,
							"internalType": "string",
							"name": "category",
							"type": "string"
						}
					],
					"name": "EquipmentAdded",
					"type": "event"
				},
				{
					"anonymous": false,
					"inputs": [
						{
							"indexed": true,
							"internalType": "uint256",
							"name": "id",
							"type": "uint256"
						},
						{
							"indexed": true,
							"internalType": "address",
							"name": "borrower",
							"type": "address"
						}
					],
					"name": "EquipmentRequested",
					"type": "event"
				},
				{
					"anonymous": false,
					"inputs": [
						{
							"indexed": true,
							"internalType": "uint256",
							"name": "id",
							"type": "uint256"
						},
						{
							"indexed": true,
							"internalType": "address",
							"name": "borrower",
							"type": "address"
						}
					],
					"name": "EquipmentReturned",
					"type": "event"
				},
				{
					"anonymous": false,
					"inputs": [
						{
							"indexed": true,
							"internalType": "uint256",
							"name": "id",
							"type": "uint256"
						},
						{
							"indexed": true,
							"internalType": "address",
							"name": "borrower",
							"type": "address"
						}
					],
					"name": "RequestApproved",
					"type": "event"
				},
				{
					"inputs": [
						{
							"internalType": "string",
							"name": "_name",
							"type": "string"
						},
						{
							"internalType": "string",
							"name": "_category",
							"type": "string"
						}
					],
					"name": "addEquipment",
					"outputs": [],
					"stateMutability": "nonpayable",
					"type": "function"
				},
				{
					"inputs": [],
					"name": "admin",
					"outputs": [
						{
							"internalType": "address",
							"name": "",
							"type": "address"
						}
					],
					"stateMutability": "view",
					"type": "function"
				},
				{
					"inputs": [
						{
							"internalType": "uint256",
							"name": "_id",
							"type": "uint256"
						}
					],
					"name": "approveRequest",
					"outputs": [],
					"stateMutability": "nonpayable",
					"type": "function"
				},
				{
					"inputs": [],
					"name": "equipmentCount",
					"outputs": [
						{
							"internalType": "uint256",
							"name": "",
							"type": "uint256"
						}
					],
					"stateMutability": "view",
					"type": "function"
				},
				{
					"inputs": [
						{
							"internalType": "uint256",
							"name": "",
							"type": "uint256"
						}
					],
					"name": "equipments",
					"outputs": [
						{
							"internalType": "uint256",
							"name": "id",
							"type": "uint256"
						},
						{
							"internalType": "string",
							"name": "name",
							"type": "string"
						},
						{
							"internalType": "string",
							"name": "category",
							"type": "string"
						},
						{
							"internalType": "enum EquipmentManagement.Status",
							"name": "status",
							"type": "uint8"
						},
						{
							"internalType": "address",
							"name": "borrower",
							"type": "address"
						}
					],
					"stateMutability": "view",
					"type": "function"
				},
				{
					"inputs": [
						{
							"internalType": "uint256",
							"name": "_id",
							"type": "uint256"
						}
					],
					"name": "getEquipment",
					"outputs": [
						{
							"internalType": "uint256",
							"name": "",
							"type": "uint256"
						},
						{
							"internalType": "string",
							"name": "",
							"type": "string"
						},
						{
							"internalType": "string",
							"name": "",
							"type": "string"
						},
						{
							"internalType": "enum EquipmentManagement.Status",
							"name": "",
							"type": "uint8"
						},
						{
							"internalType": "address",
							"name": "",
							"type": "address"
						}
					],
					"stateMutability": "view",
					"type": "function"
				},
				{
					"inputs": [
						{
							"internalType": "uint256",
							"name": "_id",
							"type": "uint256"
						}
					],
					"name": "requestBorrow",
					"outputs": [],
					"stateMutability": "nonpayable",
					"type": "function"
				},
				{
					"inputs": [
						{
							"internalType": "uint256",
							"name": "_id",
							"type": "uint256"
						}
					],
					"name": "returnEquipment",
					"outputs": [],
					"stateMutability": "nonpayable",
					"type": "function"
				}
			],
			"devdoc": {
				"kind": "dev",
				"methods": {},
				"version": 1
			},
			"evm": {
				"assembly": "    /* \"smart-contract/contracts/EquipmentManagement.sol\":570:7908  contract EquipmentManagement {... */\n  mstore(0x40, 0x80)\n    /* \"smart-contract/contracts/EquipmentManagement.sol\":3538:3589  constructor() {... */\n  callvalue\n  dup1\n  iszero\n  tag_1\n  jumpi\n  revert(0x00, 0x00)\ntag_1:\n  pop\n    /* \"smart-contract/contracts/EquipmentManagement.sol\":3571:3581  msg.sender */\n  caller\n    /* \"smart-contract/contracts/EquipmentManagement.sol\":3563:3568  admin */\n  0x00\n  0x00\n    /* \"smart-contract/contracts/EquipmentManagement.sol\":3563:3581  admin = msg.sender */\n  0x0100\n  exp\n  dup2\n  sload\n  dup2\n  0xffffffffffffffffffffffffffffffffffffffff\n  mul\n  not\n  and\n  swap1\n  dup4\n  0xffffffffffffffffffffffffffffffffffffffff\n  and\n  mul\n  or\n  swap1\n  sstore\n  pop\n    /* \"smart-contract/contracts/EquipmentManagement.sol\":570:7908  contract EquipmentManagement {... */\n  dataSize(sub_0)\n  dup1\n  dataOffset(sub_0)\n  0x00\n  codecopy\n  0x00\n  return\nstop\n\nsub_0: assembly {\n        /* \"smart-contract/contracts/EquipmentManagement.sol\":570:7908  contract EquipmentManagement {... */\n      mstore(0x40, 0x80)\n      callvalue\n      dup1\n      iszero\n      tag_1\n      jumpi\n      revert(0x00, 0x00)\n    tag_1:\n      pop\n      jumpi(tag_2, lt(calldatasize, 0x04))\n      shr(0xe0, calldataload(0x00))\n      dup1\n      0x81dd2fa0\n      gt\n      tag_11\n      jumpi\n      dup1\n      0x81dd2fa0\n      eq\n      tag_7\n      jumpi\n      dup1\n      0xa6efd620\n      eq\n      tag_8\n      jumpi\n      dup1\n      0xd7d1bbdb\n      eq\n      tag_9\n      jumpi\n      dup1\n      0xf851a440\n      eq\n      tag_10\n      jumpi\n      jump(tag_2)\n    tag_11:\n      dup1\n      0x28512d2b\n      eq\n      tag_3\n      jumpi\n      dup1\n      0x51df75fe\n      eq\n      tag_4\n      jumpi\n      dup1\n      0x6db64613\n      eq\n      tag_5\n      jumpi\n      dup1\n      0x757680aa\n      eq\n      tag_6\n      jumpi\n    tag_2:\n      revert(0x00, 0x00)\n        /* \"smart-contract/contracts/EquipmentManagement.sol\":1835:1864  uint256 public equipmentCount */\n    tag_3:\n      tag_12\n      tag_13\n      jump\t// in\n    tag_12:\n      mload(0x40)\n      tag_14\n      swap2\n      swap1\n      tag_15\n      jump\t// in\n    tag_14:\n      mload(0x40)\n      dup1\n      swap2\n      sub\n      swap1\n      return\n        /* \"smart-contract/contracts/EquipmentManagement.sol\":3935:4429  function addEquipment(... */\n    tag_4:\n      tag_16\n      0x04\n      dup1\n      calldatasize\n      sub\n      dup2\n      add\n      swap1\n      tag_17\n      swap2\n      swap1\n      tag_18\n      jump\t// in\n    tag_17:\n      tag_19\n      jump\t// in\n    tag_16:\n      stop\n        /* \"smart-contract/contracts/EquipmentManagement.sol\":6451:7098  function returnEquipment(uint256 _id) public {... */\n    tag_5:\n      tag_20\n      0x04\n      dup1\n      calldatasize\n      sub\n      dup2\n      add\n      swap1\n      tag_21\n      swap2\n      swap1\n      tag_22\n      jump\t// in\n    tag_21:\n      tag_23\n      jump\t// in\n    tag_20:\n      stop\n        /* \"smart-contract/contracts/EquipmentManagement.sol\":4764:5360  function requestBorrow(uint256 _id) public {... */\n    tag_6:\n      tag_24\n      0x04\n      dup1\n      calldatasize\n      sub\n      dup2\n      add\n      swap1\n      tag_25\n      swap2\n      swap1\n      tag_22\n      jump\t// in\n    tag_25:\n      tag_26\n      jump\t// in\n    tag_24:\n      stop\n        /* \"smart-contract/contracts/EquipmentManagement.sol\":7436:7903  function getEquipment(uint256 _id)... */\n    tag_7:\n      tag_27\n      0x04\n      dup1\n      calldatasize\n      sub\n      dup2\n      add\n      swap1\n      tag_28\n      swap2\n      swap1\n      tag_22\n      jump\t// in\n    tag_28:\n      tag_29\n      jump\t// in\n    tag_27:\n      mload(0x40)\n      tag_30\n      swap6\n      swap5\n      swap4\n      swap3\n      swap2\n      swap1\n      tag_31\n      jump\t// in\n    tag_30:\n      mload(0x40)\n      dup1\n      swap2\n      sub\n      swap1\n      return\n        /* \"smart-contract/contracts/EquipmentManagement.sol\":1906:1953  mapping(uint256 => Equipment) public equipments */\n    tag_8:\n      tag_32\n      0x04\n      dup1\n      calldatasize\n      sub\n      dup2\n      add\n      swap1\n      tag_33\n      swap2\n      swap1\n      tag_22\n      jump\t// in\n    tag_33:\n      tag_34\n      jump\t// in\n    tag_32:\n      mload(0x40)\n      tag_35\n      swap6\n      swap5\n      swap4\n      swap3\n      swap2\n      swap1\n      tag_31\n      jump\t// in\n    tag_35:\n      mload(0x40)\n      dup1\n      swap2\n      sub\n      swap1\n      return\n        /* \"smart-contract/contracts/EquipmentManagement.sol\":5695:6121  function approveRequest(uint256 _id) public onlyAdmin {... */\n    tag_9:\n      tag_36\n      0x04\n      dup1\n      calldatasize\n      sub\n      dup2\n      add\n      swap1\n      tag_37\n      swap2\n      swap1\n      tag_22\n      jump\t// in\n    tag_37:\n      tag_38\n      jump\t// in\n    tag_36:\n      stop\n        /* \"smart-contract/contracts/EquipmentManagement.sol\":1780:1800  address public admin */\n    tag_10:\n      tag_39\n      tag_40\n      jump\t// in\n    tag_39:\n      mload(0x40)\n      tag_41\n      swap2\n      swap1\n      tag_42\n      jump\t// in\n    tag_41:\n      mload(0x40)\n      dup1\n      swap2\n      sub\n      swap1\n      return\n        /* \"smart-contract/contracts/EquipmentManagement.sol\":1835:1864  uint256 public equipmentCount */\n    tag_13:\n      sload(0x01)\n      dup2\n      jump\t// out\n        /* \"smart-contract/contracts/EquipmentManagement.sol\":3935:4429  function addEquipment(... */\n    tag_19:\n        /* \"smart-contract/contracts/EquipmentManagement.sol\":3138:3143  admin */\n      0x00\n      0x00\n      swap1\n      sload\n      swap1\n      0x0100\n      exp\n      swap1\n      div\n      0xffffffffffffffffffffffffffffffffffffffff\n      and\n        /* \"smart-contract/contracts/EquipmentManagement.sol\":3124:3143  msg.sender == admin */\n      0xffffffffffffffffffffffffffffffffffffffff\n      and\n        /* \"smart-contract/contracts/EquipmentManagement.sol\":3124:3134  msg.sender */\n      caller\n        /* \"smart-contract/contracts/EquipmentManagement.sol\":3124:3143  msg.sender == admin */\n      0xffffffffffffffffffffffffffffffffffffffff\n      and\n      eq\n        /* \"smart-contract/contracts/EquipmentManagement.sol\":3116:3183  require(msg.sender == admin, \"Only admin can perform this action.\") */\n      tag_44\n      jumpi\n      mload(0x40)\n      0x08c379a000000000000000000000000000000000000000000000000000000000\n      dup2\n      mstore\n      0x04\n      add\n      tag_45\n      swap1\n      tag_46\n      jump\t// in\n    tag_45:\n      mload(0x40)\n      dup1\n      swap2\n      sub\n      swap1\n      revert\n    tag_44:\n        /* \"smart-contract/contracts/EquipmentManagement.sol\":4058:4072  equipmentCount */\n      0x01\n      0x00\n        /* \"smart-contract/contracts/EquipmentManagement.sol\":4058:4074  equipmentCount++ */\n      dup2\n      sload\n      dup1\n      swap3\n      swap2\n      swap1\n      tag_48\n      swap1\n      tag_49\n      jump\t// in\n    tag_48:\n      swap2\n      swap1\n      pop\n      sstore\n      pop\n        /* \"smart-contract/contracts/EquipmentManagement.sol\":4116:4305  Equipment({... */\n      mload(0x40)\n      dup1\n      0xa0\n      add\n      0x40\n      mstore\n      dup1\n        /* \"smart-contract/contracts/EquipmentManagement.sol\":4145:4159  equipmentCount */\n      sload(0x01)\n        /* \"smart-contract/contracts/EquipmentManagement.sol\":4116:4305  Equipment({... */\n      dup2\n      mstore\n      0x20\n      add\n        /* \"smart-contract/contracts/EquipmentManagement.sol\":4180:4185  _name */\n      dup4\n        /* \"smart-contract/contracts/EquipmentManagement.sol\":4116:4305  Equipment({... */\n      dup2\n      mstore\n      0x20\n      add\n        /* \"smart-contract/contracts/EquipmentManagement.sol\":4210:4219  _category */\n      dup3\n        /* \"smart-contract/contracts/EquipmentManagement.sol\":4116:4305  Equipment({... */\n      dup2\n      mstore\n      0x20\n      add\n        /* \"smart-contract/contracts/EquipmentManagement.sol\":4242:4258  Status.Available */\n      0x00\n        /* \"smart-contract/contracts/EquipmentManagement.sol\":4116:4305  Equipment({... */\n      0x02\n      dup2\n      gt\n      iszero\n      tag_50\n      jumpi\n      tag_51\n      tag_52\n      jump\t// in\n    tag_51:\n    tag_50:\n      dup2\n      mstore\n      0x20\n      add\n        /* \"smart-contract/contracts/EquipmentManagement.sol\":4291:4292  0 */\n      0x00\n        /* \"smart-contract/contracts/EquipmentManagement.sol\":4116:4305  Equipment({... */\n      0xffffffffffffffffffffffffffffffffffffffff\n      and\n      dup2\n      mstore\n      pop\n        /* \"smart-contract/contracts/EquipmentManagement.sol\":4087:4097  equipments */\n      0x02\n        /* \"smart-contract/contracts/EquipmentManagement.sol\":4087:4113  equipments[equipmentCount] */\n      0x00\n        /* \"smart-contract/contracts/EquipmentManagement.sol\":4098:4112  equipmentCount */\n      sload(0x01)\n        /* \"smart-contract/contracts/EquipmentManagement.sol\":4087:4113  equipments[equipmentCount] */\n      dup2\n      mstore\n      0x20\n      add\n      swap1\n      dup2\n      mstore\n      0x20\n      add\n      0x00\n      keccak256\n        /* \"smart-contract/contracts/EquipmentManagement.sol\":4087:4305  equipments[equipmentCount] = Equipment({... */\n      0x00\n      dup3\n      add\n      mload\n      dup2\n      0x00\n      add\n      sstore\n      0x20\n      dup3\n      add\n      mload\n      dup2\n      0x01\n      add\n      swap1\n      dup2\n      tag_53\n      swap2\n      swap1\n      tag_54\n      jump\t// in\n    tag_53:\n      pop\n      0x40\n      dup3\n      add\n      mload\n      dup2\n      0x02\n      add\n      swap1\n      dup2\n      tag_55\n      swap2\n      swap1\n      tag_54\n      jump\t// in\n    tag_55:\n      pop\n      0x60\n      dup3\n      add\n      mload\n      dup2\n      0x03\n      add\n      exp(0x0100, 0x00)\n      dup2\n      sload\n      dup2\n      0xff\n      mul\n      not\n      and\n      swap1\n      dup4\n      0x02\n      dup2\n      gt\n      iszero\n      tag_56\n      jumpi\n      tag_57\n      tag_52\n      jump\t// in\n    tag_57:\n    tag_56:\n      mul\n      or\n      swap1\n      sstore\n      pop\n      0x80\n      dup3\n      add\n      mload\n      dup2\n      0x03\n      add\n      exp(0x0100, 0x01)\n      dup2\n      sload\n      dup2\n      0xffffffffffffffffffffffffffffffffffffffff\n      mul\n      not\n      and\n      swap1\n      dup4\n      0xffffffffffffffffffffffffffffffffffffffff\n      and\n      mul\n      or\n      swap1\n      sstore\n      pop\n      swap1\n      pop\n      pop\n        /* \"smart-contract/contracts/EquipmentManagement.sol\":4352:4366  equipmentCount */\n      sload(0x01)\n        /* \"smart-contract/contracts/EquipmentManagement.sol\":4323:4421  EquipmentAdded(... */\n      0x01f323f0828ec808225fc2c0a1a8a9c91d0b1cc292286d19bc85da6f25078a20\n        /* \"smart-contract/contracts/EquipmentManagement.sol\":4381:4386  _name */\n      dup4\n        /* \"smart-contract/contracts/EquipmentManagement.sol\":4401:4410  _category */\n      dup4\n        /* \"smart-contract/contracts/EquipmentManagement.sol\":4323:4421  EquipmentAdded(... */\n      mload(0x40)\n      tag_58\n      swap3\n      swap2\n      swap1\n      tag_59\n      jump\t// in\n    tag_58:\n      mload(0x40)\n      dup1\n      swap2\n      sub\n      swap1\n      log2\n        /* \"smart-contract/contracts/EquipmentManagement.sol\":3935:4429  function addEquipment(... */\n      pop\n      pop\n      jump\t// out\n        /* \"smart-contract/contracts/EquipmentManagement.sol\":6451:7098  function returnEquipment(uint256 _id) public {... */\n    tag_23:\n        /* \"smart-contract/contracts/EquipmentManagement.sol\":6509:6536  Equipment storage equipment */\n      0x00\n        /* \"smart-contract/contracts/EquipmentManagement.sol\":6539:6549  equipments */\n      0x02\n        /* \"smart-contract/contracts/EquipmentManagement.sol\":6539:6554  equipments[_id] */\n      0x00\n        /* \"smart-contract/contracts/EquipmentManagement.sol\":6550:6553  _id */\n      dup4\n        /* \"smart-contract/contracts/EquipmentManagement.sol\":6539:6554  equipments[_id] */\n      dup2\n      mstore\n      0x20\n      add\n      swap1\n      dup2\n      mstore\n      0x20\n      add\n      0x00\n      keccak256\n        /* \"smart-contract/contracts/EquipmentManagement.sol\":6509:6554  Equipment storage equipment = equipments[_id] */\n      swap1\n      pop\n        /* \"smart-contract/contracts/EquipmentManagement.sol\":6609:6624  Status.Borrowed */\n      0x02\n        /* \"smart-contract/contracts/EquipmentManagement.sol\":6589:6624  equipment.status == Status.Borrowed */\n      dup1\n      dup2\n      gt\n      iszero\n      tag_61\n      jumpi\n      tag_62\n      tag_52\n      jump\t// in\n    tag_62:\n    tag_61:\n        /* \"smart-contract/contracts/EquipmentManagement.sol\":6589:6598  equipment */\n      dup2\n        /* \"smart-contract/contracts/EquipmentManagement.sol\":6589:6605  equipment.status */\n      0x03\n      add\n      0x00\n      swap1\n      sload\n      swap1\n      0x0100\n      exp\n      swap1\n      div\n      0xff\n      and\n        /* \"smart-contract/contracts/EquipmentManagement.sol\":6589:6624  equipment.status == Status.Borrowed */\n      0x02\n      dup2\n      gt\n      iszero\n      tag_63\n      jumpi\n      tag_64\n      tag_52\n      jump\t// in\n    tag_64:\n    tag_63:\n      eq\n        /* \"smart-contract/contracts/EquipmentManagement.sol\":6567:6678  require(... */\n      tag_65\n      jumpi\n      mload(0x40)\n      0x08c379a000000000000000000000000000000000000000000000000000000000\n      dup2\n      mstore\n      0x04\n      add\n      tag_66\n      swap1\n      tag_67\n      jump\t// in\n    tag_66:\n      mload(0x40)\n      dup1\n      swap2\n      sub\n      swap1\n      revert\n    tag_65:\n        /* \"smart-contract/contracts/EquipmentManagement.sol\":6811:6821  msg.sender */\n      caller\n        /* \"smart-contract/contracts/EquipmentManagement.sol\":6789:6821  equipment.borrower == msg.sender */\n      0xffffffffffffffffffffffffffffffffffffffff\n      and\n        /* \"smart-contract/contracts/EquipmentManagement.sol\":6789:6798  equipment */\n      dup2\n        /* \"smart-contract/contracts/EquipmentManagement.sol\":6789:6807  equipment.borrower */\n      0x03\n      add\n      0x01\n      swap1\n      sload\n      swap1\n      0x0100\n      exp\n      swap1\n      div\n      0xffffffffffffffffffffffffffffffffffffffff\n      and\n        /* \"smart-contract/contracts/EquipmentManagement.sol\":6789:6821  equipment.borrower == msg.sender */\n      0xffffffffffffffffffffffffffffffffffffffff\n      and\n      eq\n        /* \"smart-contract/contracts/EquipmentManagement.sol\":6767:6884  require(... */\n      tag_68\n      jumpi\n      mload(0x40)\n      0x08c379a000000000000000000000000000000000000000000000000000000000\n      dup2\n      mstore\n      0x04\n      add\n      tag_69\n      swap1\n      tag_70\n      jump\t// in\n    tag_69:\n      mload(0x40)\n      dup1\n      swap2\n      sub\n      swap1\n      revert\n    tag_68:\n        /* \"smart-contract/contracts/EquipmentManagement.sol\":6951:6967  Status.Available */\n      0x00\n        /* \"smart-contract/contracts/EquipmentManagement.sol\":6932:6941  equipment */\n      dup2\n        /* \"smart-contract/contracts/EquipmentManagement.sol\":6932:6948  equipment.status */\n      0x03\n      add\n      0x00\n        /* \"smart-contract/contracts/EquipmentManagement.sol\":6932:6967  equipment.status = Status.Available */\n      0x0100\n      exp\n      dup2\n      sload\n      dup2\n      0xff\n      mul\n      not\n      and\n      swap1\n      dup4\n      0x02\n      dup2\n      gt\n      iszero\n      tag_71\n      jumpi\n      tag_72\n      tag_52\n      jump\t// in\n    tag_72:\n    tag_71:\n      mul\n      or\n      swap1\n      sstore\n      pop\n        /* \"smart-contract/contracts/EquipmentManagement.sol\":7036:7037  0 */\n      0x00\n        /* \"smart-contract/contracts/EquipmentManagement.sol\":7007:7016  equipment */\n      dup2\n        /* \"smart-contract/contracts/EquipmentManagement.sol\":7007:7025  equipment.borrower */\n      0x03\n      add\n      0x01\n        /* \"smart-contract/contracts/EquipmentManagement.sol\":7007:7038  equipment.borrower = address(0) */\n      0x0100\n      exp\n      dup2\n      sload\n      dup2\n      0xffffffffffffffffffffffffffffffffffffffff\n      mul\n      not\n      and\n      swap1\n      dup4\n      0xffffffffffffffffffffffffffffffffffffffff\n      and\n      mul\n      or\n      swap1\n      sstore\n      pop\n        /* \"smart-contract/contracts/EquipmentManagement.sol\":7079:7089  msg.sender */\n      caller\n        /* \"smart-contract/contracts/EquipmentManagement.sol\":7056:7090  EquipmentReturned(_id, msg.sender) */\n      0xffffffffffffffffffffffffffffffffffffffff\n      and\n        /* \"smart-contract/contracts/EquipmentManagement.sol\":7074:7077  _id */\n      dup3\n        /* \"smart-contract/contracts/EquipmentManagement.sol\":7056:7090  EquipmentReturned(_id, msg.sender) */\n      0x05909368b77ddb069c4677a19ab0b404edaf0bdfd8f85dc752367e1ba1eca406\n      mload(0x40)\n      mload(0x40)\n      dup1\n      swap2\n      sub\n      swap1\n      log3\n        /* \"smart-contract/contracts/EquipmentManagement.sol\":6496:7098  {... */\n      pop\n        /* \"smart-contract/contracts/EquipmentManagement.sol\":6451:7098  function returnEquipment(uint256 _id) public {... */\n      pop\n      jump\t// out\n        /* \"smart-contract/contracts/EquipmentManagement.sol\":4764:5360  function requestBorrow(uint256 _id) public {... */\n    tag_26:\n        /* \"smart-contract/contracts/EquipmentManagement.sol\":4820:4847  Equipment storage equipment */\n      0x00\n        /* \"smart-contract/contracts/EquipmentManagement.sol\":4850:4860  equipments */\n      0x02\n        /* \"smart-contract/contracts/EquipmentManagement.sol\":4850:4865  equipments[_id] */\n      0x00\n        /* \"smart-contract/contracts/EquipmentManagement.sol\":4861:4864  _id */\n      dup4\n        /* \"smart-contract/contracts/EquipmentManagement.sol\":4850:4865  equipments[_id] */\n      dup2\n      mstore\n      0x20\n      add\n      swap1\n      dup2\n      mstore\n      0x20\n      add\n      0x00\n      keccak256\n        /* \"smart-contract/contracts/EquipmentManagement.sol\":4820:4865  Equipment storage equipment = equipments[_id] */\n      swap1\n      pop\n        /* \"smart-contract/contracts/EquipmentManagement.sol\":4938:4939  0 */\n      0x00\n        /* \"smart-contract/contracts/EquipmentManagement.sol\":4922:4931  equipment */\n      dup2\n        /* \"smart-contract/contracts/EquipmentManagement.sol\":4922:4934  equipment.id */\n      0x00\n      add\n      sload\n        /* \"smart-contract/contracts/EquipmentManagement.sol\":4922:4939  equipment.id != 0 */\n      sub\n        /* \"smart-contract/contracts/EquipmentManagement.sol\":4914:4969  require(equipment.id != 0, \"Equipment does not exist.\") */\n      tag_74\n      jumpi\n      mload(0x40)\n      0x08c379a000000000000000000000000000000000000000000000000000000000\n      dup2\n      mstore\n      0x04\n      add\n      tag_75\n      swap1\n      tag_76\n      jump\t// in\n    tag_75:\n      mload(0x40)\n      dup1\n      swap2\n      sub\n      swap1\n      revert\n    tag_74:\n        /* \"smart-contract/contracts/EquipmentManagement.sol\":5066:5082  Status.Available */\n      0x00\n        /* \"smart-contract/contracts/EquipmentManagement.sol\":5046:5082  equipment.status == Status.Available */\n      0x02\n      dup2\n      gt\n      iszero\n      tag_77\n      jumpi\n      tag_78\n      tag_52\n      jump\t// in\n    tag_78:\n    tag_77:\n        /* \"smart-contract/contracts/EquipmentManagement.sol\":5046:5055  equipment */\n      dup2\n        /* \"smart-contract/contracts/EquipmentManagement.sol\":5046:5062  equipment.status */\n      0x03\n      add\n      0x00\n      swap1\n      sload\n      swap1\n      0x0100\n      exp\n      swap1\n      div\n      0xff\n      and\n        /* \"smart-contract/contracts/EquipmentManagement.sol\":5046:5082  equipment.status == Status.Available */\n      0x02\n      dup2\n      gt\n      iszero\n      tag_79\n      jumpi\n      tag_80\n      tag_52\n      jump\t// in\n    tag_80:\n    tag_79:\n      eq\n        /* \"smart-contract/contracts/EquipmentManagement.sol\":5024:5137  require(... */\n      tag_81\n      jumpi\n      mload(0x40)\n      0x08c379a000000000000000000000000000000000000000000000000000000000\n      dup2\n      mstore\n      0x04\n      add\n      tag_82\n      swap1\n      tag_83\n      jump\t// in\n    tag_82:\n      mload(0x40)\n      dup1\n      swap2\n      sub\n      swap1\n      revert\n    tag_81:\n        /* \"smart-contract/contracts/EquipmentManagement.sol\":5205:5221  Status.Requested */\n      0x01\n        /* \"smart-contract/contracts/EquipmentManagement.sol\":5186:5195  equipment */\n      dup2\n        /* \"smart-contract/contracts/EquipmentManagement.sol\":5186:5202  equipment.status */\n      0x03\n      add\n      0x00\n        /* \"smart-contract/contracts/EquipmentManagement.sol\":5186:5221  equipment.status = Status.Requested */\n      0x0100\n      exp\n      dup2\n      sload\n      dup2\n      0xff\n      mul\n      not\n      and\n      swap1\n      dup4\n      0x02\n      dup2\n      gt\n      iszero\n      tag_84\n      jumpi\n      tag_85\n      tag_52\n      jump\t// in\n    tag_85:\n    tag_84:\n      mul\n      or\n      swap1\n      sstore\n      pop\n        /* \"smart-contract/contracts/EquipmentManagement.sol\":5289:5299  msg.sender */\n      caller\n        /* \"smart-contract/contracts/EquipmentManagement.sol\":5268:5277  equipment */\n      dup2\n        /* \"smart-contract/contracts/EquipmentManagement.sol\":5268:5286  equipment.borrower */\n      0x03\n      add\n      0x01\n        /* \"smart-contract/contracts/EquipmentManagement.sol\":5268:5299  equipment.borrower = msg.sender */\n      0x0100\n      exp\n      dup2\n      sload\n      dup2\n      0xffffffffffffffffffffffffffffffffffffffff\n      mul\n      not\n      and\n      swap1\n      dup4\n      0xffffffffffffffffffffffffffffffffffffffff\n      and\n      mul\n      or\n      swap1\n      sstore\n      pop\n        /* \"smart-contract/contracts/EquipmentManagement.sol\":5341:5351  msg.sender */\n      caller\n        /* \"smart-contract/contracts/EquipmentManagement.sol\":5317:5352  EquipmentRequested(_id, msg.sender) */\n      0xffffffffffffffffffffffffffffffffffffffff\n      and\n        /* \"smart-contract/contracts/EquipmentManagement.sol\":5336:5339  _id */\n      dup3\n        /* \"smart-contract/contracts/EquipmentManagement.sol\":5317:5352  EquipmentRequested(_id, msg.sender) */\n      0xfd0e835657522c860741007bba61d82e5955eced970886741d4ef79fc9e3b6cb\n      mload(0x40)\n      mload(0x40)\n      dup1\n      swap2\n      sub\n      swap1\n      log3\n        /* \"smart-contract/contracts/EquipmentManagement.sol\":4807:5360  {... */\n      pop\n        /* \"smart-contract/contracts/EquipmentManagement.sol\":4764:5360  function requestBorrow(uint256 _id) public {... */\n      pop\n      jump\t// out\n        /* \"smart-contract/contracts/EquipmentManagement.sol\":7436:7903  function getEquipment(uint256 _id)... */\n    tag_29:\n        /* \"smart-contract/contracts/EquipmentManagement.sol\":7533:7540  uint256 */\n      0x00\n        /* \"smart-contract/contracts/EquipmentManagement.sol\":7555:7568  string memory */\n      0x60\n        /* \"smart-contract/contracts/EquipmentManagement.sol\":7583:7596  string memory */\n      dup1\n        /* \"smart-contract/contracts/EquipmentManagement.sol\":7611:7617  Status */\n      0x00\n        /* \"smart-contract/contracts/EquipmentManagement.sol\":7632:7639  address */\n      0x00\n        /* \"smart-contract/contracts/EquipmentManagement.sol\":7667:7693  Equipment memory equipment */\n      0x00\n        /* \"smart-contract/contracts/EquipmentManagement.sol\":7696:7706  equipments */\n      0x02\n        /* \"smart-contract/contracts/EquipmentManagement.sol\":7696:7711  equipments[_id] */\n      0x00\n        /* \"smart-contract/contracts/EquipmentManagement.sol\":7707:7710  _id */\n      dup9\n        /* \"smart-contract/contracts/EquipmentManagement.sol\":7696:7711  equipments[_id] */\n      dup2\n      mstore\n      0x20\n      add\n      swap1\n      dup2\n      mstore\n      0x20\n      add\n      0x00\n      keccak256\n        /* \"smart-contract/contracts/EquipmentManagement.sol\":7667:7711  Equipment memory equipment = equipments[_id] */\n      mload(0x40)\n      dup1\n      0xa0\n      add\n      0x40\n      mstore\n      swap1\n      dup2\n      0x00\n      dup3\n      add\n      sload\n      dup2\n      mstore\n      0x20\n      add\n      0x01\n      dup3\n      add\n      dup1\n      sload\n      tag_87\n      swap1\n      tag_88\n      jump\t// in\n    tag_87:\n      dup1\n      0x1f\n      add\n      0x20\n      dup1\n      swap2\n      div\n      mul\n      0x20\n      add\n      mload(0x40)\n      swap1\n      dup2\n      add\n      0x40\n      mstore\n      dup1\n      swap3\n      swap2\n      swap1\n      dup2\n      dup2\n      mstore\n      0x20\n      add\n      dup3\n      dup1\n      sload\n      tag_89\n      swap1\n      tag_88\n      jump\t// in\n    tag_89:\n      dup1\n      iszero\n      tag_90\n      jumpi\n      dup1\n      0x1f\n      lt\n      tag_91\n      jumpi\n      0x0100\n      dup1\n      dup4\n      sload\n      div\n      mul\n      dup4\n      mstore\n      swap2\n      0x20\n      add\n      swap2\n      jump(tag_90)\n    tag_91:\n      dup3\n      add\n      swap2\n      swap1\n      0x00\n      mstore\n      keccak256(0x00, 0x20)\n      swap1\n    tag_92:\n      dup2\n      sload\n      dup2\n      mstore\n      swap1\n      0x01\n      add\n      swap1\n      0x20\n      add\n      dup1\n      dup4\n      gt\n      tag_92\n      jumpi\n      dup3\n      swap1\n      sub\n      0x1f\n      and\n      dup3\n      add\n      swap2\n    tag_90:\n      pop\n      pop\n      pop\n      pop\n      pop\n      dup2\n      mstore\n      0x20\n      add\n      0x02\n      dup3\n      add\n      dup1\n      sload\n      tag_93\n      swap1\n      tag_88\n      jump\t// in\n    tag_93:\n      dup1\n      0x1f\n      add\n      0x20\n      dup1\n      swap2\n      div\n      mul\n      0x20\n      add\n      mload(0x40)\n      swap1\n      dup2\n      add\n      0x40\n      mstore\n      dup1\n      swap3\n      swap2\n      swap1\n      dup2\n      dup2\n      mstore\n      0x20\n      add\n      dup3\n      dup1\n      sload\n      tag_94\n      swap1\n      tag_88\n      jump\t// in\n    tag_94:\n      dup1\n      iszero\n      tag_95\n      jumpi\n      dup1\n      0x1f\n      lt\n      tag_96\n      jumpi\n      0x0100\n      dup1\n      dup4\n      sload\n      div\n      mul\n      dup4\n      mstore\n      swap2\n      0x20\n      add\n      swap2\n      jump(tag_95)\n    tag_96:\n      dup3\n      add\n      swap2\n      swap1\n      0x00\n      mstore\n      keccak256(0x00, 0x20)\n      swap1\n    tag_97:\n      dup2\n      sload\n      dup2\n      mstore\n      swap1\n      0x01\n      add\n      swap1\n      0x20\n      add\n      dup1\n      dup4\n      gt\n      tag_97\n      jumpi\n      dup3\n      swap1\n      sub\n      0x1f\n      and\n      dup3\n      add\n      swap2\n    tag_95:\n      pop\n      pop\n      pop\n      pop\n      pop\n      dup2\n      mstore\n      0x20\n      add\n      0x03\n      dup3\n      add\n      0x00\n      swap1\n      sload\n      swap1\n      0x0100\n      exp\n      swap1\n      div\n      0xff\n      and\n      0x02\n      dup2\n      gt\n      iszero\n      tag_98\n      jumpi\n      tag_99\n      tag_52\n      jump\t// in\n    tag_99:\n    tag_98:\n      0x02\n      dup2\n      gt\n      iszero\n      tag_100\n      jumpi\n      tag_101\n      tag_52\n      jump\t// in\n    tag_101:\n    tag_100:\n      dup2\n      mstore\n      0x20\n      add\n      0x03\n      dup3\n      add\n      0x01\n      swap1\n      sload\n      swap1\n      0x0100\n      exp\n      swap1\n      div\n      0xffffffffffffffffffffffffffffffffffffffff\n      and\n      0xffffffffffffffffffffffffffffffffffffffff\n      and\n      0xffffffffffffffffffffffffffffffffffffffff\n      and\n      dup2\n      mstore\n      pop\n      pop\n      swap1\n      pop\n        /* \"smart-contract/contracts/EquipmentManagement.sol\":7746:7755  equipment */\n      dup1\n        /* \"smart-contract/contracts/EquipmentManagement.sol\":7746:7758  equipment.id */\n      0x00\n      add\n      mload\n        /* \"smart-contract/contracts/EquipmentManagement.sol\":7773:7782  equipment */\n      dup2\n        /* \"smart-contract/contracts/EquipmentManagement.sol\":7773:7787  equipment.name */\n      0x20\n      add\n      mload\n        /* \"smart-contract/contracts/EquipmentManagement.sol\":7802:7811  equipment */\n      dup3\n        /* \"smart-contract/contracts/EquipmentManagement.sol\":7802:7820  equipment.category */\n      0x40\n      add\n      mload\n        /* \"smart-contract/contracts/EquipmentManagement.sol\":7835:7844  equipment */\n      dup4\n        /* \"smart-contract/contracts/EquipmentManagement.sol\":7835:7851  equipment.status */\n      0x60\n      add\n      mload\n        /* \"smart-contract/contracts/EquipmentManagement.sol\":7866:7875  equipment */\n      dup5\n        /* \"smart-contract/contracts/EquipmentManagement.sol\":7866:7884  equipment.borrower */\n      0x80\n      add\n      mload\n        /* \"smart-contract/contracts/EquipmentManagement.sol\":7724:7895  return (... */\n      swap6\n      pop\n      swap6\n      pop\n      swap6\n      pop\n      swap6\n      pop\n      swap6\n      pop\n      pop\n        /* \"smart-contract/contracts/EquipmentManagement.sol\":7436:7903  function getEquipment(uint256 _id)... */\n      swap2\n      swap4\n      swap6\n      swap1\n      swap3\n      swap5\n      pop\n      jump\t// out\n        /* \"smart-contract/contracts/EquipmentManagement.sol\":1906:1953  mapping(uint256 => Equipment) public equipments */\n    tag_34:\n      mstore(0x20, 0x02)\n      dup1\n      0x00\n      mstore\n      keccak256(0x00, 0x40)\n      0x00\n      swap2\n      pop\n      swap1\n      pop\n      dup1\n      0x00\n      add\n      sload\n      swap1\n      dup1\n      0x01\n      add\n      dup1\n      sload\n      tag_102\n      swap1\n      tag_88\n      jump\t// in\n    tag_102:\n      dup1\n      0x1f\n      add\n      0x20\n      dup1\n      swap2\n      div\n      mul\n      0x20\n      add\n      mload(0x40)\n      swap1\n      dup2\n      add\n      0x40\n      mstore\n      dup1\n      swap3\n      swap2\n      swap1\n      dup2\n      dup2\n      mstore\n      0x20\n      add\n      dup3\n      dup1\n      sload\n      tag_103\n      swap1\n      tag_88\n      jump\t// in\n    tag_103:\n      dup1\n      iszero\n      tag_104\n      jumpi\n      dup1\n      0x1f\n      lt\n      tag_105\n      jumpi\n      0x0100\n      dup1\n      dup4\n      sload\n      div\n      mul\n      dup4\n      mstore\n      swap2\n      0x20\n      add\n      swap2\n      jump(tag_104)\n    tag_105:\n      dup3\n      add\n      swap2\n      swap1\n      0x00\n      mstore\n      keccak256(0x00, 0x20)\n      swap1\n    tag_106:\n      dup2\n      sload\n      dup2\n      mstore\n      swap1\n      0x01\n      add\n      swap1\n      0x20\n      add\n      dup1\n      dup4\n      gt\n      tag_106\n      jumpi\n      dup3\n      swap1\n      sub\n      0x1f\n      and\n      dup3\n      add\n      swap2\n    tag_104:\n      pop\n      pop\n      pop\n      pop\n      pop\n      swap1\n      dup1\n      0x02\n      add\n      dup1\n      sload\n      tag_107\n      swap1\n      tag_88\n      jump\t// in\n    tag_107:\n      dup1\n      0x1f\n      add\n      0x20\n      dup1\n      swap2\n      div\n      mul\n      0x20\n      add\n      mload(0x40)\n      swap1\n      dup2\n      add\n      0x40\n      mstore\n      dup1\n      swap3\n      swap2\n      swap1\n      dup2\n      dup2\n      mstore\n      0x20\n      add\n      dup3\n      dup1\n      sload\n      tag_108\n      swap1\n      tag_88\n      jump\t// in\n    tag_108:\n      dup1\n      iszero\n      tag_109\n      jumpi\n      dup1\n      0x1f\n      lt\n      tag_110\n      jumpi\n      0x0100\n      dup1\n      dup4\n      sload\n      div\n      mul\n      dup4\n      mstore\n      swap2\n      0x20\n      add\n      swap2\n      jump(tag_109)\n    tag_110:\n      dup3\n      add\n      swap2\n      swap1\n      0x00\n      mstore\n      keccak256(0x00, 0x20)\n      swap1\n    tag_111:\n      dup2\n      sload\n      dup2\n      mstore\n      swap1\n      0x01\n      add\n      swap1\n      0x20\n      add\n      dup1\n      dup4\n      gt\n      tag_111\n      jumpi\n      dup3\n      swap1\n      sub\n      0x1f\n      and\n      dup3\n      add\n      swap2\n    tag_109:\n      pop\n      pop\n      pop\n      pop\n      pop\n      swap1\n      dup1\n      0x03\n      add\n      0x00\n      swap1\n      sload\n      swap1\n      0x0100\n      exp\n      swap1\n      div\n      0xff\n      and\n      swap1\n      dup1\n      0x03\n      add\n      0x01\n      swap1\n      sload\n      swap1\n      0x0100\n      exp\n      swap1\n      div\n      0xffffffffffffffffffffffffffffffffffffffff\n      and\n      swap1\n      pop\n      dup6\n      jump\t// out\n        /* \"smart-contract/contracts/EquipmentManagement.sol\":5695:6121  function approveRequest(uint256 _id) public onlyAdmin {... */\n    tag_38:\n        /* \"smart-contract/contracts/EquipmentManagement.sol\":3138:3143  admin */\n      0x00\n      0x00\n      swap1\n      sload\n      swap1\n      0x0100\n      exp\n      swap1\n      div\n      0xffffffffffffffffffffffffffffffffffffffff\n      and\n        /* \"smart-contract/contracts/EquipmentManagement.sol\":3124:3143  msg.sender == admin */\n      0xffffffffffffffffffffffffffffffffffffffff\n      and\n        /* \"smart-contract/contracts/EquipmentManagement.sol\":3124:3134  msg.sender */\n      caller\n        /* \"smart-contract/contracts/EquipmentManagement.sol\":3124:3143  msg.sender == admin */\n      0xffffffffffffffffffffffffffffffffffffffff\n      and\n      eq\n        /* \"smart-contract/contracts/EquipmentManagement.sol\":3116:3183  require(msg.sender == admin, \"Only admin can perform this action.\") */\n      tag_113\n      jumpi\n      mload(0x40)\n      0x08c379a000000000000000000000000000000000000000000000000000000000\n      dup2\n      mstore\n      0x04\n      add\n      tag_114\n      swap1\n      tag_46\n      jump\t// in\n    tag_114:\n      mload(0x40)\n      dup1\n      swap2\n      sub\n      swap1\n      revert\n    tag_113:\n        /* \"smart-contract/contracts/EquipmentManagement.sol\":5762:5789  Equipment storage equipment */\n      0x00\n        /* \"smart-contract/contracts/EquipmentManagement.sol\":5792:5802  equipments */\n      0x02\n        /* \"smart-contract/contracts/EquipmentManagement.sol\":5792:5807  equipments[_id] */\n      0x00\n        /* \"smart-contract/contracts/EquipmentManagement.sol\":5803:5806  _id */\n      dup4\n        /* \"smart-contract/contracts/EquipmentManagement.sol\":5792:5807  equipments[_id] */\n      dup2\n      mstore\n      0x20\n      add\n      swap1\n      dup2\n      mstore\n      0x20\n      add\n      0x00\n      keccak256\n        /* \"smart-contract/contracts/EquipmentManagement.sol\":5762:5807  Equipment storage equipment = equipments[_id] */\n      swap1\n      pop\n        /* \"smart-contract/contracts/EquipmentManagement.sol\":5862:5878  Status.Requested */\n      0x01\n        /* \"smart-contract/contracts/EquipmentManagement.sol\":5842:5878  equipment.status == Status.Requested */\n      0x02\n      dup2\n      gt\n      iszero\n      tag_116\n      jumpi\n      tag_117\n      tag_52\n      jump\t// in\n    tag_117:\n    tag_116:\n        /* \"smart-contract/contracts/EquipmentManagement.sol\":5842:5851  equipment */\n      dup2\n        /* \"smart-contract/contracts/EquipmentManagement.sol\":5842:5858  equipment.status */\n      0x03\n      add\n      0x00\n      swap1\n      sload\n      swap1\n      0x0100\n      exp\n      swap1\n      div\n      0xff\n      and\n        /* \"smart-contract/contracts/EquipmentManagement.sol\":5842:5878  equipment.status == Status.Requested */\n      0x02\n      dup2\n      gt\n      iszero\n      tag_118\n      jumpi\n      tag_119\n      tag_52\n      jump\t// in\n    tag_119:\n    tag_118:\n      eq\n        /* \"smart-contract/contracts/EquipmentManagement.sol\":5820:5933  require(... */\n      tag_120\n      jumpi\n      mload(0x40)\n      0x08c379a000000000000000000000000000000000000000000000000000000000\n      dup2\n      mstore\n      0x04\n      add\n      tag_121\n      swap1\n      tag_122\n      jump\t// in\n    tag_121:\n      mload(0x40)\n      dup1\n      swap2\n      sub\n      swap1\n      revert\n    tag_120:\n        /* \"smart-contract/contracts/EquipmentManagement.sol\":6003:6018  Status.Borrowed */\n      0x02\n        /* \"smart-contract/contracts/EquipmentManagement.sol\":5984:5993  equipment */\n      dup2\n        /* \"smart-contract/contracts/EquipmentManagement.sol\":5984:6000  equipment.status */\n      0x03\n      add\n      0x00\n        /* \"smart-contract/contracts/EquipmentManagement.sol\":5984:6018  equipment.status = Status.Borrowed */\n      0x0100\n      exp\n      dup2\n      sload\n      dup2\n      0xff\n      mul\n      not\n      and\n      swap1\n      dup4\n      0x02\n      dup2\n      gt\n      iszero\n      tag_123\n      jumpi\n      tag_124\n      tag_52\n      jump\t// in\n    tag_124:\n    tag_123:\n      mul\n      or\n      swap1\n      sstore\n      pop\n        /* \"smart-contract/contracts/EquipmentManagement.sol\":6084:6093  equipment */\n      dup1\n        /* \"smart-contract/contracts/EquipmentManagement.sol\":6084:6102  equipment.borrower */\n      0x03\n      add\n      0x01\n      swap1\n      sload\n      swap1\n      0x0100\n      exp\n      swap1\n      div\n      0xffffffffffffffffffffffffffffffffffffffff\n      and\n        /* \"smart-contract/contracts/EquipmentManagement.sol\":6036:6113  RequestApproved(... */\n      0xffffffffffffffffffffffffffffffffffffffff\n      and\n        /* \"smart-contract/contracts/EquipmentManagement.sol\":6066:6069  _id */\n      dup3\n        /* \"smart-contract/contracts/EquipmentManagement.sol\":6036:6113  RequestApproved(... */\n      0xf3dc904660a0ea05aba8dfa1e21fbc4fb2914be2a3029da7b0fdd3e5eee20ddb\n      mload(0x40)\n      mload(0x40)\n      dup1\n      swap2\n      sub\n      swap1\n      log3\n        /* \"smart-contract/contracts/EquipmentManagement.sol\":5749:6121  {... */\n      pop\n        /* \"smart-contract/contracts/EquipmentManagement.sol\":5695:6121  function approveRequest(uint256 _id) public onlyAdmin {... */\n      pop\n      jump\t// out\n        /* \"smart-contract/contracts/EquipmentManagement.sol\":1780:1800  address public admin */\n    tag_40:\n      0x00\n      0x00\n      swap1\n      sload\n      swap1\n      0x0100\n      exp\n      swap1\n      div\n      0xffffffffffffffffffffffffffffffffffffffff\n      and\n      dup2\n      jump\t// out\n        /* \"#utility.yul\":7:84   */\n    tag_125:\n        /* \"#utility.yul\":44:51   */\n      0x00\n        /* \"#utility.yul\":73:78   */\n      dup2\n        /* \"#utility.yul\":62:78   */\n      swap1\n      pop\n        /* \"#utility.yul\":7:84   */\n      swap2\n      swap1\n      pop\n      jump\t// out\n        /* \"#utility.yul\":90:208   */\n    tag_126:\n        /* \"#utility.yul\":177:201   */\n      tag_185\n        /* \"#utility.yul\":195:200   */\n      dup2\n        /* \"#utility.yul\":177:201   */\n      tag_125\n      jump\t// in\n    tag_185:\n        /* \"#utility.yul\":172:175   */\n      dup3\n        /* \"#utility.yul\":165:202   */\n      mstore\n        /* \"#utility.yul\":90:208   */\n      pop\n      pop\n      jump\t// out\n        /* \"#utility.yul\":214:436   */\n    tag_15:\n        /* \"#utility.yul\":307:311   */\n      0x00\n        /* \"#utility.yul\":345:347   */\n      0x20\n        /* \"#utility.yul\":334:343   */\n      dup3\n        /* \"#utility.yul\":330:348   */\n      add\n        /* \"#utility.yul\":322:348   */\n      swap1\n      pop\n        /* \"#utility.yul\":358:429   */\n      tag_187\n        /* \"#utility.yul\":426:427   */\n      0x00\n        /* \"#utility.yul\":415:424   */\n      dup4\n        /* \"#utility.yul\":411:428   */\n      add\n        /* \"#utility.yul\":402:408   */\n      dup5\n        /* \"#utility.yul\":358:429   */\n      tag_126\n      jump\t// in\n    tag_187:\n        /* \"#utility.yul\":214:436   */\n      swap3\n      swap2\n      pop\n      pop\n      jump\t// out\n        /* \"#utility.yul\":442:517   */\n    tag_127:\n        /* \"#utility.yul\":475:481   */\n      0x00\n        /* \"#utility.yul\":508:510   */\n      0x40\n        /* \"#utility.yul\":502:511   */\n      mload\n        /* \"#utility.yul\":492:511   */\n      swap1\n      pop\n        /* \"#utility.yul\":442:517   */\n      swap1\n      jump\t// out\n        /* \"#utility.yul\":523:640   */\n    tag_128:\n        /* \"#utility.yul\":632:633   */\n      0x00\n        /* \"#utility.yul\":629:630   */\n      0x00\n        /* \"#utility.yul\":622:634   */\n      revert\n        /* \"#utility.yul\":646:763   */\n    tag_129:\n        /* \"#utility.yul\":755:756   */\n      0x00\n        /* \"#utility.yul\":752:753   */\n      0x00\n        /* \"#utility.yul\":745:757   */\n      revert\n        /* \"#utility.yul\":769:886   */\n    tag_130:\n        /* \"#utility.yul\":878:879   */\n      0x00\n        /* \"#utility.yul\":875:876   */\n      0x00\n        /* \"#utility.yul\":868:880   */\n      revert\n        /* \"#utility.yul\":892:1009   */\n    tag_131:\n        /* \"#utility.yul\":1001:1002   */\n      0x00\n        /* \"#utility.yul\":998:999   */\n      0x00\n        /* \"#utility.yul\":991:1003   */\n      revert\n        /* \"#utility.yul\":1015:1117   */\n    tag_132:\n        /* \"#utility.yul\":1056:1062   */\n      0x00\n        /* \"#utility.yul\":1107:1109   */\n      0x1f\n        /* \"#utility.yul\":1103:1110   */\n      not\n        /* \"#utility.yul\":1098:1100   */\n      0x1f\n        /* \"#utility.yul\":1091:1096   */\n      dup4\n        /* \"#utility.yul\":1087:1101   */\n      add\n        /* \"#utility.yul\":1083:1111   */\n      and\n        /* \"#utility.yul\":1073:1111   */\n      swap1\n      pop\n        /* \"#utility.yul\":1015:1117   */\n      swap2\n      swap1\n      pop\n      jump\t// out\n        /* \"#utility.yul\":1123:1303   */\n    tag_133:\n        /* \"#utility.yul\":1171:1248   */\n      0x4e487b7100000000000000000000000000000000000000000000000000000000\n        /* \"#utility.yul\":1168:1169   */\n      0x00\n        /* \"#utility.yul\":1161:1249   */\n      mstore\n        /* \"#utility.yul\":1268:1272   */\n      0x41\n        /* \"#utility.yul\":1265:1266   */\n      0x04\n        /* \"#utility.yul\":1258:1273   */\n      mstore\n        /* \"#utility.yul\":1292:1296   */\n      0x24\n        /* \"#utility.yul\":1289:1290   */\n      0x00\n        /* \"#utility.yul\":1282:1297   */\n      revert\n        /* \"#utility.yul\":1309:1590   */\n    tag_134:\n        /* \"#utility.yul\":1392:1419   */\n      tag_196\n        /* \"#utility.yul\":1414:1418   */\n      dup3\n        /* \"#utility.yul\":1392:1419   */\n      tag_132\n      jump\t// in\n    tag_196:\n        /* \"#utility.yul\":1384:1390   */\n      dup2\n        /* \"#utility.yul\":1380:1420   */\n      add\n        /* \"#utility.yul\":1522:1528   */\n      dup2\n        /* \"#utility.yul\":1510:1520   */\n      dup2\n        /* \"#utility.yul\":1507:1529   */\n      lt\n        /* \"#utility.yul\":1486:1504   */\n      0xffffffffffffffff\n        /* \"#utility.yul\":1474:1484   */\n      dup3\n        /* \"#utility.yul\":1471:1505   */\n      gt\n        /* \"#utility.yul\":1468:1530   */\n      or\n        /* \"#utility.yul\":1465:1553   */\n      iszero\n      tag_197\n      jumpi\n        /* \"#utility.yul\":1533:1551   */\n      tag_198\n      tag_133\n      jump\t// in\n    tag_198:\n        /* \"#utility.yul\":1465:1553   */\n    tag_197:\n        /* \"#utility.yul\":1573:1583   */\n      dup1\n        /* \"#utility.yul\":1569:1571   */\n      0x40\n        /* \"#utility.yul\":1562:1584   */\n      mstore\n        /* \"#utility.yul\":1352:1590   */\n      pop\n        /* \"#utility.yul\":1309:1590   */\n      pop\n      pop\n      jump\t// out\n        /* \"#utility.yul\":1596:1725   */\n    tag_135:\n        /* \"#utility.yul\":1630:1636   */\n      0x00\n        /* \"#utility.yul\":1657:1677   */\n      tag_200\n      tag_127\n      jump\t// in\n    tag_200:\n        /* \"#utility.yul\":1647:1677   */\n      swap1\n      pop\n        /* \"#utility.yul\":1686:1719   */\n      tag_201\n        /* \"#utility.yul\":1714:1718   */\n      dup3\n        /* \"#utility.yul\":1706:1712   */\n      dup3\n        /* \"#utility.yul\":1686:1719   */\n      tag_134\n      jump\t// in\n    tag_201:\n        /* \"#utility.yul\":1596:1725   */\n      swap2\n      swap1\n      pop\n      jump\t// out\n        /* \"#utility.yul\":1731:2039   */\n    tag_136:\n        /* \"#utility.yul\":1793:1797   */\n      0x00\n        /* \"#utility.yul\":1883:1901   */\n      0xffffffffffffffff\n        /* \"#utility.yul\":1875:1881   */\n      dup3\n        /* \"#utility.yul\":1872:1902   */\n      gt\n        /* \"#utility.yul\":1869:1925   */\n      iszero\n      tag_203\n      jumpi\n        /* \"#utility.yul\":1905:1923   */\n      tag_204\n      tag_133\n      jump\t// in\n    tag_204:\n        /* \"#utility.yul\":1869:1925   */\n    tag_203:\n        /* \"#utility.yul\":1943:1972   */\n      tag_205\n        /* \"#utility.yul\":1965:1971   */\n      dup3\n        /* \"#utility.yul\":1943:1972   */\n      tag_132\n      jump\t// in\n    tag_205:\n        /* \"#utility.yul\":1935:1972   */\n      swap1\n      pop\n        /* \"#utility.yul\":2027:2031   */\n      0x20\n        /* \"#utility.yul\":2021:2025   */\n      dup2\n        /* \"#utility.yul\":2017:2032   */\n      add\n        /* \"#utility.yul\":2009:2032   */\n      swap1\n      pop\n        /* \"#utility.yul\":1731:2039   */\n      swap2\n      swap1\n      pop\n      jump\t// out\n        /* \"#utility.yul\":2045:2193   */\n    tag_137:\n        /* \"#utility.yul\":2143:2149   */\n      dup3\n        /* \"#utility.yul\":2138:2141   */\n      dup2\n        /* \"#utility.yul\":2133:2136   */\n      dup4\n        /* \"#utility.yul\":2120:2150   */\n      calldatacopy\n        /* \"#utility.yul\":2184:2185   */\n      0x00\n        /* \"#utility.yul\":2175:2181   */\n      dup4\n        /* \"#utility.yul\":2170:2173   */\n      dup4\n        /* \"#utility.yul\":2166:2182   */\n      add\n        /* \"#utility.yul\":2159:2186   */\n      mstore\n        /* \"#utility.yul\":2045:2193   */\n      pop\n      pop\n      pop\n      jump\t// out\n        /* \"#utility.yul\":2199:2624   */\n    tag_138:\n        /* \"#utility.yul\":2277:2282   */\n      0x00\n        /* \"#utility.yul\":2302:2368   */\n      tag_208\n        /* \"#utility.yul\":2318:2367   */\n      tag_209\n        /* \"#utility.yul\":2360:2366   */\n      dup5\n        /* \"#utility.yul\":2318:2367   */\n      tag_136\n      jump\t// in\n    tag_209:\n        /* \"#utility.yul\":2302:2368   */\n      tag_135\n      jump\t// in\n    tag_208:\n        /* \"#utility.yul\":2293:2368   */\n      swap1\n      pop\n        /* \"#utility.yul\":2391:2397   */\n      dup3\n        /* \"#utility.yul\":2384:2389   */\n      dup2\n        /* \"#utility.yul\":2377:2398   */\n      mstore\n        /* \"#utility.yul\":2429:2433   */\n      0x20\n        /* \"#utility.yul\":2422:2427   */\n      dup2\n        /* \"#utility.yul\":2418:2434   */\n      add\n        /* \"#utility.yul\":2467:2470   */\n      dup5\n        /* \"#utility.yul\":2458:2464   */\n      dup5\n        /* \"#utility.yul\":2453:2456   */\n      dup5\n        /* \"#utility.yul\":2449:2465   */\n      add\n        /* \"#utility.yul\":2446:2471   */\n      gt\n        /* \"#utility.yul\":2443:2555   */\n      iszero\n      tag_210\n      jumpi\n        /* \"#utility.yul\":2474:2553   */\n      tag_211\n      tag_131\n      jump\t// in\n    tag_211:\n        /* \"#utility.yul\":2443:2555   */\n    tag_210:\n        /* \"#utility.yul\":2564:2618   */\n      tag_212\n        /* \"#utility.yul\":2611:2617   */\n      dup5\n        /* \"#utility.yul\":2606:2609   */\n      dup3\n        /* \"#utility.yul\":2601:2604   */\n      dup6\n        /* \"#utility.yul\":2564:2618   */\n      tag_137\n      jump\t// in\n    tag_212:\n        /* \"#utility.yul\":2283:2624   */\n      pop\n        /* \"#utility.yul\":2199:2624   */\n      swap4\n      swap3\n      pop\n      pop\n      pop\n      jump\t// out\n        /* \"#utility.yul\":2644:2984   */\n    tag_139:\n        /* \"#utility.yul\":2700:2705   */\n      0x00\n        /* \"#utility.yul\":2749:2752   */\n      dup3\n        /* \"#utility.yul\":2742:2746   */\n      0x1f\n        /* \"#utility.yul\":2734:2740   */\n      dup4\n        /* \"#utility.yul\":2730:2747   */\n      add\n        /* \"#utility.yul\":2726:2753   */\n      slt\n        /* \"#utility.yul\":2716:2838   */\n      tag_214\n      jumpi\n        /* \"#utility.yul\":2757:2836   */\n      tag_215\n      tag_130\n      jump\t// in\n    tag_215:\n        /* \"#utility.yul\":2716:2838   */\n    tag_214:\n        /* \"#utility.yul\":2874:2880   */\n      dup2\n        /* \"#utility.yul\":2861:2881   */\n      calldataload\n        /* \"#utility.yul\":2899:2978   */\n      tag_216\n        /* \"#utility.yul\":2974:2977   */\n      dup5\n        /* \"#utility.yul\":2966:2972   */\n      dup3\n        /* \"#utility.yul\":2959:2963   */\n      0x20\n        /* \"#utility.yul\":2951:2957   */\n      dup7\n        /* \"#utility.yul\":2947:2964   */\n      add\n        /* \"#utility.yul\":2899:2978   */\n      tag_138\n      jump\t// in\n    tag_216:\n        /* \"#utility.yul\":2890:2978   */\n      swap2\n      pop\n        /* \"#utility.yul\":2706:2984   */\n      pop\n        /* \"#utility.yul\":2644:2984   */\n      swap3\n      swap2\n      pop\n      pop\n      jump\t// out\n        /* \"#utility.yul\":2990:3824   */\n    tag_18:\n        /* \"#utility.yul\":3078:3084   */\n      0x00\n        /* \"#utility.yul\":3086:3092   */\n      0x00\n        /* \"#utility.yul\":3135:3137   */\n      0x40\n        /* \"#utility.yul\":3123:3132   */\n      dup4\n        /* \"#utility.yul\":3114:3121   */\n      dup6\n        /* \"#utility.yul\":3110:3133   */\n      sub\n        /* \"#utility.yul\":3106:3138   */\n      slt\n        /* \"#utility.yul\":3103:3222   */\n      iszero\n      tag_218\n      jumpi\n        /* \"#utility.yul\":3141:3220   */\n      tag_219\n      tag_128\n      jump\t// in\n    tag_219:\n        /* \"#utility.yul\":3103:3222   */\n    tag_218:\n        /* \"#utility.yul\":3289:3290   */\n      0x00\n        /* \"#utility.yul\":3278:3287   */\n      dup4\n        /* \"#utility.yul\":3274:3291   */\n      add\n        /* \"#utility.yul\":3261:3292   */\n      calldataload\n        /* \"#utility.yul\":3319:3337   */\n      0xffffffffffffffff\n        /* \"#utility.yul\":3311:3317   */\n      dup2\n        /* \"#utility.yul\":3308:3338   */\n      gt\n        /* \"#utility.yul\":3305:3422   */\n      iszero\n      tag_220\n      jumpi\n        /* \"#utility.yul\":3341:3420   */\n      tag_221\n      tag_129\n      jump\t// in\n    tag_221:\n        /* \"#utility.yul\":3305:3422   */\n    tag_220:\n        /* \"#utility.yul\":3446:3509   */\n      tag_222\n        /* \"#utility.yul\":3501:3508   */\n      dup6\n        /* \"#utility.yul\":3492:3498   */\n      dup3\n        /* \"#utility.yul\":3481:3490   */\n      dup7\n        /* \"#utility.yul\":3477:3499   */\n      add\n        /* \"#utility.yul\":3446:3509   */\n      tag_139\n      jump\t// in\n    tag_222:\n        /* \"#utility.yul\":3436:3509   */\n      swap3\n      pop\n        /* \"#utility.yul\":3232:3519   */\n      pop\n        /* \"#utility.yul\":3586:3588   */\n      0x20\n        /* \"#utility.yul\":3575:3584   */\n      dup4\n        /* \"#utility.yul\":3571:3589   */\n      add\n        /* \"#utility.yul\":3558:3590   */\n      calldataload\n        /* \"#utility.yul\":3617:3635   */\n      0xffffffffffffffff\n        /* \"#utility.yul\":3609:3615   */\n      dup2\n        /* \"#utility.yul\":3606:3636   */\n      gt\n        /* \"#utility.yul\":3603:3720   */\n      iszero\n      tag_223\n      jumpi\n        /* \"#utility.yul\":3639:3718   */\n      tag_224\n      tag_129\n      jump\t// in\n    tag_224:\n        /* \"#utility.yul\":3603:3720   */\n    tag_223:\n        /* \"#utility.yul\":3744:3807   */\n      tag_225\n        /* \"#utility.yul\":3799:3806   */\n      dup6\n        /* \"#utility.yul\":3790:3796   */\n      dup3\n        /* \"#utility.yul\":3779:3788   */\n      dup7\n        /* \"#utility.yul\":3775:3797   */\n      add\n        /* \"#utility.yul\":3744:3807   */\n      tag_139\n      jump\t// in\n    tag_225:\n        /* \"#utility.yul\":3734:3807   */\n      swap2\n      pop\n        /* \"#utility.yul\":3529:3817   */\n      pop\n        /* \"#utility.yul\":2990:3824   */\n      swap3\n      pop\n      swap3\n      swap1\n      pop\n      jump\t// out\n        /* \"#utility.yul\":3830:3952   */\n    tag_140:\n        /* \"#utility.yul\":3903:3927   */\n      tag_227\n        /* \"#utility.yul\":3921:3926   */\n      dup2\n        /* \"#utility.yul\":3903:3927   */\n      tag_125\n      jump\t// in\n    tag_227:\n        /* \"#utility.yul\":3896:3901   */\n      dup2\n        /* \"#utility.yul\":3893:3928   */\n      eq\n        /* \"#utility.yul\":3883:3946   */\n      tag_228\n      jumpi\n        /* \"#utility.yul\":3942:3943   */\n      0x00\n        /* \"#utility.yul\":3939:3940   */\n      0x00\n        /* \"#utility.yul\":3932:3944   */\n      revert\n        /* \"#utility.yul\":3883:3946   */\n    tag_228:\n        /* \"#utility.yul\":3830:3952   */\n      pop\n      jump\t// out\n        /* \"#utility.yul\":3958:4097   */\n    tag_141:\n        /* \"#utility.yul\":4004:4009   */\n      0x00\n        /* \"#utility.yul\":4042:4048   */\n      dup2\n        /* \"#utility.yul\":4029:4049   */\n      calldataload\n        /* \"#utility.yul\":4020:4049   */\n      swap1\n      pop\n        /* \"#utility.yul\":4058:4091   */\n      tag_230\n        /* \"#utility.yul\":4085:4090   */\n      dup2\n        /* \"#utility.yul\":4058:4091   */\n      tag_140\n      jump\t// in\n    tag_230:\n        /* \"#utility.yul\":3958:4097   */\n      swap3\n      swap2\n      pop\n      pop\n      jump\t// out\n        /* \"#utility.yul\":4103:4432   */\n    tag_22:\n        /* \"#utility.yul\":4162:4168   */\n      0x00\n        /* \"#utility.yul\":4211:4213   */\n      0x20\n        /* \"#utility.yul\":4199:4208   */\n      dup3\n        /* \"#utility.yul\":4190:4197   */\n      dup5\n        /* \"#utility.yul\":4186:4209   */\n      sub\n        /* \"#utility.yul\":4182:4214   */\n      slt\n        /* \"#utility.yul\":4179:4298   */\n      iszero\n      tag_232\n      jumpi\n        /* \"#utility.yul\":4217:4296   */\n      tag_233\n      tag_128\n      jump\t// in\n    tag_233:\n        /* \"#utility.yul\":4179:4298   */\n    tag_232:\n        /* \"#utility.yul\":4337:4338   */\n      0x00\n        /* \"#utility.yul\":4362:4415   */\n      tag_234\n        /* \"#utility.yul\":4407:4414   */\n      dup5\n        /* \"#utility.yul\":4398:4404   */\n      dup3\n        /* \"#utility.yul\":4387:4396   */\n      dup6\n        /* \"#utility.yul\":4383:4405   */\n      add\n        /* \"#utility.yul\":4362:4415   */\n      tag_141\n      jump\t// in\n    tag_234:\n        /* \"#utility.yul\":4352:4415   */\n      swap2\n      pop\n        /* \"#utility.yul\":4308:4425   */\n      pop\n        /* \"#utility.yul\":4103:4432   */\n      swap3\n      swap2\n      pop\n      pop\n      jump\t// out\n        /* \"#utility.yul\":4438:4537   */\n    tag_142:\n        /* \"#utility.yul\":4490:4496   */\n      0x00\n        /* \"#utility.yul\":4524:4529   */\n      dup2\n        /* \"#utility.yul\":4518:4530   */\n      mload\n        /* \"#utility.yul\":4508:4530   */\n      swap1\n      pop\n        /* \"#utility.yul\":4438:4537   */\n      swap2\n      swap1\n      pop\n      jump\t// out\n        /* \"#utility.yul\":4543:4712   */\n    tag_143:\n        /* \"#utility.yul\":4627:4638   */\n      0x00\n        /* \"#utility.yul\":4661:4667   */\n      dup3\n        /* \"#utility.yul\":4656:4659   */\n      dup3\n        /* \"#utility.yul\":4649:4668   */\n      mstore\n        /* \"#utility.yul\":4701:4705   */\n      0x20\n        /* \"#utility.yul\":4696:4699   */\n      dup3\n        /* \"#utility.yul\":4692:4706   */\n      add\n        /* \"#utility.yul\":4677:4706   */\n      swap1\n      pop\n        /* \"#utility.yul\":4543:4712   */\n      swap3\n      swap2\n      pop\n      pop\n      jump\t// out\n        /* \"#utility.yul\":4718:4857   */\n    tag_144:\n        /* \"#utility.yul\":4807:4813   */\n      dup3\n        /* \"#utility.yul\":4802:4805   */\n      dup2\n        /* \"#utility.yul\":4797:4800   */\n      dup4\n        /* \"#utility.yul\":4791:4814   */\n      mcopy\n        /* \"#utility.yul\":4848:4849   */\n      0x00\n        /* \"#utility.yul\":4839:4845   */\n      dup4\n        /* \"#utility.yul\":4834:4837   */\n      dup4\n        /* \"#utility.yul\":4830:4846   */\n      add\n        /* \"#utility.yul\":4823:4850   */\n      mstore\n        /* \"#utility.yul\":4718:4857   */\n      pop\n      pop\n      pop\n      jump\t// out\n        /* \"#utility.yul\":4863:5240   */\n    tag_145:\n        /* \"#utility.yul\":4951:4954   */\n      0x00\n        /* \"#utility.yul\":4979:5018   */\n      tag_239\n        /* \"#utility.yul\":5012:5017   */\n      dup3\n        /* \"#utility.yul\":4979:5018   */\n      tag_142\n      jump\t// in\n    tag_239:\n        /* \"#utility.yul\":5034:5105   */\n      tag_240\n        /* \"#utility.yul\":5098:5104   */\n      dup2\n        /* \"#utility.yul\":5093:5096   */\n      dup6\n        /* \"#utility.yul\":5034:5105   */\n      tag_143\n      jump\t// in\n    tag_240:\n        /* \"#utility.yul\":5027:5105   */\n      swap4\n      pop\n        /* \"#utility.yul\":5114:5179   */\n      tag_241\n        /* \"#utility.yul\":5172:5178   */\n      dup2\n        /* \"#utility.yul\":5167:5170   */\n      dup6\n        /* \"#utility.yul\":5160:5164   */\n      0x20\n        /* \"#utility.yul\":5153:5158   */\n      dup7\n        /* \"#utility.yul\":5149:5165   */\n      add\n        /* \"#utility.yul\":5114:5179   */\n      tag_144\n      jump\t// in\n    tag_241:\n        /* \"#utility.yul\":5204:5233   */\n      tag_242\n        /* \"#utility.yul\":5226:5232   */\n      dup2\n        /* \"#utility.yul\":5204:5233   */\n      tag_132\n      jump\t// in\n    tag_242:\n        /* \"#utility.yul\":5199:5202   */\n      dup5\n        /* \"#utility.yul\":5195:5234   */\n      add\n        /* \"#utility.yul\":5188:5234   */\n      swap2\n      pop\n        /* \"#utility.yul\":4955:5240   */\n      pop\n        /* \"#utility.yul\":4863:5240   */\n      swap3\n      swap2\n      pop\n      pop\n      jump\t// out\n        /* \"#utility.yul\":5246:5426   */\n    tag_52:\n        /* \"#utility.yul\":5294:5371   */\n      0x4e487b7100000000000000000000000000000000000000000000000000000000\n        /* \"#utility.yul\":5291:5292   */\n      0x00\n        /* \"#utility.yul\":5284:5372   */\n      mstore\n        /* \"#utility.yul\":5391:5395   */\n      0x21\n        /* \"#utility.yul\":5388:5389   */\n      0x04\n        /* \"#utility.yul\":5381:5396   */\n      mstore\n        /* \"#utility.yul\":5415:5419   */\n      0x24\n        /* \"#utility.yul\":5412:5413   */\n      0x00\n        /* \"#utility.yul\":5405:5420   */\n      revert\n        /* \"#utility.yul\":5432:5545   */\n    tag_146:\n        /* \"#utility.yul\":5513:5514   */\n      0x03\n        /* \"#utility.yul\":5506:5511   */\n      dup2\n        /* \"#utility.yul\":5503:5515   */\n      lt\n        /* \"#utility.yul\":5493:5539   */\n      tag_245\n      jumpi\n        /* \"#utility.yul\":5519:5537   */\n      tag_246\n      tag_52\n      jump\t// in\n    tag_246:\n        /* \"#utility.yul\":5493:5539   */\n    tag_245:\n        /* \"#utility.yul\":5432:5545   */\n      pop\n      jump\t// out\n        /* \"#utility.yul\":5551:5678   */\n    tag_147:\n        /* \"#utility.yul\":5596:5603   */\n      0x00\n        /* \"#utility.yul\":5625:5630   */\n      dup2\n        /* \"#utility.yul\":5614:5630   */\n      swap1\n      pop\n        /* \"#utility.yul\":5631:5672   */\n      tag_248\n        /* \"#utility.yul\":5666:5671   */\n      dup3\n        /* \"#utility.yul\":5631:5672   */\n      tag_146\n      jump\t// in\n    tag_248:\n        /* \"#utility.yul\":5551:5678   */\n      swap2\n      swap1\n      pop\n      jump\t// out\n        /* \"#utility.yul\":5684:5811   */\n    tag_148:\n        /* \"#utility.yul\":5740:5749   */\n      0x00\n        /* \"#utility.yul\":5773:5805   */\n      tag_250\n        /* \"#utility.yul\":5799:5804   */\n      dup3\n        /* \"#utility.yul\":5773:5805   */\n      tag_147\n      jump\t// in\n    tag_250:\n        /* \"#utility.yul\":5760:5805   */\n      swap1\n      pop\n        /* \"#utility.yul\":5684:5811   */\n      swap2\n      swap1\n      pop\n      jump\t// out\n        /* \"#utility.yul\":5817:5960   */\n    tag_149:\n        /* \"#utility.yul\":5910:5953   */\n      tag_252\n        /* \"#utility.yul\":5947:5952   */\n      dup2\n        /* \"#utility.yul\":5910:5953   */\n      tag_148\n      jump\t// in\n    tag_252:\n        /* \"#utility.yul\":5905:5908   */\n      dup3\n        /* \"#utility.yul\":5898:5954   */\n      mstore\n        /* \"#utility.yul\":5817:5960   */\n      pop\n      pop\n      jump\t// out\n        /* \"#utility.yul\":5966:6092   */\n    tag_150:\n        /* \"#utility.yul\":6003:6010   */\n      0x00\n        /* \"#utility.yul\":6043:6085   */\n      0xffffffffffffffffffffffffffffffffffffffff\n        /* \"#utility.yul\":6036:6041   */\n      dup3\n        /* \"#utility.yul\":6032:6086   */\n      and\n        /* \"#utility.yul\":6021:6086   */\n      swap1\n      pop\n        /* \"#utility.yul\":5966:6092   */\n      swap2\n      swap1\n      pop\n      jump\t// out\n        /* \"#utility.yul\":6098:6194   */\n    tag_151:\n        /* \"#utility.yul\":6135:6142   */\n      0x00\n        /* \"#utility.yul\":6164:6188   */\n      tag_255\n        /* \"#utility.yul\":6182:6187   */\n      dup3\n        /* \"#utility.yul\":6164:6188   */\n      tag_150\n      jump\t// in\n    tag_255:\n        /* \"#utility.yul\":6153:6188   */\n      swap1\n      pop\n        /* \"#utility.yul\":6098:6194   */\n      swap2\n      swap1\n      pop\n      jump\t// out\n        /* \"#utility.yul\":6200:6318   */\n    tag_152:\n        /* \"#utility.yul\":6287:6311   */\n      tag_257\n        /* \"#utility.yul\":6305:6310   */\n      dup2\n        /* \"#utility.yul\":6287:6311   */\n      tag_151\n      jump\t// in\n    tag_257:\n        /* \"#utility.yul\":6282:6285   */\n      dup3\n        /* \"#utility.yul\":6275:6312   */\n      mstore\n        /* \"#utility.yul\":6200:6318   */\n      pop\n      pop\n      jump\t// out\n        /* \"#utility.yul\":6324:7182   */\n    tag_31:\n        /* \"#utility.yul\":6575:6579   */\n      0x00\n        /* \"#utility.yul\":6613:6616   */\n      0xa0\n        /* \"#utility.yul\":6602:6611   */\n      dup3\n        /* \"#utility.yul\":6598:6617   */\n      add\n        /* \"#utility.yul\":6590:6617   */\n      swap1\n      pop\n        /* \"#utility.yul\":6627:6698   */\n      tag_259\n        /* \"#utility.yul\":6695:6696   */\n      0x00\n        /* \"#utility.yul\":6684:6693   */\n      dup4\n        /* \"#utility.yul\":6680:6697   */\n      add\n        /* \"#utility.yul\":6671:6677   */\n      dup9\n        /* \"#utility.yul\":6627:6698   */\n      tag_126\n      jump\t// in\n    tag_259:\n        /* \"#utility.yul\":6745:6754   */\n      dup2\n        /* \"#utility.yul\":6739:6743   */\n      dup2\n        /* \"#utility.yul\":6735:6755   */\n      sub\n        /* \"#utility.yul\":6730:6732   */\n      0x20\n        /* \"#utility.yul\":6719:6728   */\n      dup4\n        /* \"#utility.yul\":6715:6733   */\n      add\n        /* \"#utility.yul\":6708:6756   */\n      mstore\n        /* \"#utility.yul\":6773:6851   */\n      tag_260\n        /* \"#utility.yul\":6846:6850   */\n      dup2\n        /* \"#utility.yul\":6837:6843   */\n      dup8\n        /* \"#utility.yul\":6773:6851   */\n      tag_145\n      jump\t// in\n    tag_260:\n        /* \"#utility.yul\":6765:6851   */\n      swap1\n      pop\n        /* \"#utility.yul\":6898:6907   */\n      dup2\n        /* \"#utility.yul\":6892:6896   */\n      dup2\n        /* \"#utility.yul\":6888:6908   */\n      sub\n        /* \"#utility.yul\":6883:6885   */\n      0x40\n        /* \"#utility.yul\":6872:6881   */\n      dup4\n        /* \"#utility.yul\":6868:6886   */\n      add\n        /* \"#utility.yul\":6861:6909   */\n      mstore\n        /* \"#utility.yul\":6926:7004   */\n      tag_261\n        /* \"#utility.yul\":6999:7003   */\n      dup2\n        /* \"#utility.yul\":6990:6996   */\n      dup7\n        /* \"#utility.yul\":6926:7004   */\n      tag_145\n      jump\t// in\n    tag_261:\n        /* \"#utility.yul\":6918:7004   */\n      swap1\n      pop\n        /* \"#utility.yul\":7014:7092   */\n      tag_262\n        /* \"#utility.yul\":7088:7090   */\n      0x60\n        /* \"#utility.yul\":7077:7086   */\n      dup4\n        /* \"#utility.yul\":7073:7091   */\n      add\n        /* \"#utility.yul\":7064:7070   */\n      dup6\n        /* \"#utility.yul\":7014:7092   */\n      tag_149\n      jump\t// in\n    tag_262:\n        /* \"#utility.yul\":7102:7175   */\n      tag_263\n        /* \"#utility.yul\":7170:7173   */\n      0x80\n        /* \"#utility.yul\":7159:7168   */\n      dup4\n        /* \"#utility.yul\":7155:7174   */\n      add\n        /* \"#utility.yul\":7146:7152   */\n      dup5\n        /* \"#utility.yul\":7102:7175   */\n      tag_152\n      jump\t// in\n    tag_263:\n        /* \"#utility.yul\":6324:7182   */\n      swap7\n      swap6\n      pop\n      pop\n      pop\n      pop\n      pop\n      pop\n      jump\t// out\n        /* \"#utility.yul\":7188:7410   */\n    tag_42:\n        /* \"#utility.yul\":7281:7285   */\n      0x00\n        /* \"#utility.yul\":7319:7321   */\n      0x20\n        /* \"#utility.yul\":7308:7317   */\n      dup3\n        /* \"#utility.yul\":7304:7322   */\n      add\n        /* \"#utility.yul\":7296:7322   */\n      swap1\n      pop\n        /* \"#utility.yul\":7332:7403   */\n      tag_265\n        /* \"#utility.yul\":7400:7401   */\n      0x00\n        /* \"#utility.yul\":7389:7398   */\n      dup4\n        /* \"#utility.yul\":7385:7402   */\n      add\n        /* \"#utility.yul\":7376:7382   */\n      dup5\n        /* \"#utility.yul\":7332:7403   */\n      tag_152\n      jump\t// in\n    tag_265:\n        /* \"#utility.yul\":7188:7410   */\n      swap3\n      swap2\n      pop\n      pop\n      jump\t// out\n        /* \"#utility.yul\":7416:7638   */\n    tag_153:\n        /* \"#utility.yul\":7556:7590   */\n      0x4f6e6c792061646d696e2063616e20706572666f726d20746869732061637469\n        /* \"#utility.yul\":7552:7553   */\n      0x00\n        /* \"#utility.yul\":7544:7550   */\n      dup3\n        /* \"#utility.yul\":7540:7554   */\n      add\n        /* \"#utility.yul\":7533:7591   */\n      mstore\n        /* \"#utility.yul\":7625:7630   */\n      0x6f6e2e0000000000000000000000000000000000000000000000000000000000\n        /* \"#utility.yul\":7620:7622   */\n      0x20\n        /* \"#utility.yul\":7612:7618   */\n      dup3\n        /* \"#utility.yul\":7608:7623   */\n      add\n        /* \"#utility.yul\":7601:7631   */\n      mstore\n        /* \"#utility.yul\":7416:7638   */\n      pop\n      jump\t// out\n        /* \"#utility.yul\":7644:8010   */\n    tag_154:\n        /* \"#utility.yul\":7786:7789   */\n      0x00\n        /* \"#utility.yul\":7807:7874   */\n      tag_268\n        /* \"#utility.yul\":7871:7873   */\n      0x23\n        /* \"#utility.yul\":7866:7869   */\n      dup4\n        /* \"#utility.yul\":7807:7874   */\n      tag_143\n      jump\t// in\n    tag_268:\n        /* \"#utility.yul\":7800:7874   */\n      swap2\n      pop\n        /* \"#utility.yul\":7883:7976   */\n      tag_269\n        /* \"#utility.yul\":7972:7975   */\n      dup3\n        /* \"#utility.yul\":7883:7976   */\n      tag_153\n      jump\t// in\n    tag_269:\n        /* \"#utility.yul\":8001:8003   */\n      0x40\n        /* \"#utility.yul\":7996:7999   */\n      dup3\n        /* \"#utility.yul\":7992:8004   */\n      add\n        /* \"#utility.yul\":7985:8004   */\n      swap1\n      pop\n        /* \"#utility.yul\":7644:8010   */\n      swap2\n      swap1\n      pop\n      jump\t// out\n        /* \"#utility.yul\":8016:8435   */\n    tag_46:\n        /* \"#utility.yul\":8182:8186   */\n      0x00\n        /* \"#utility.yul\":8220:8222   */\n      0x20\n        /* \"#utility.yul\":8209:8218   */\n      dup3\n        /* \"#utility.yul\":8205:8223   */\n      add\n        /* \"#utility.yul\":8197:8223   */\n      swap1\n      pop\n        /* \"#utility.yul\":8269:8278   */\n      dup2\n        /* \"#utility.yul\":8263:8267   */\n      dup2\n        /* \"#utility.yul\":8259:8279   */\n      sub\n        /* \"#utility.yul\":8255:8256   */\n      0x00\n        /* \"#utility.yul\":8244:8253   */\n      dup4\n        /* \"#utility.yul\":8240:8257   */\n      add\n        /* \"#utility.yul\":8233:8280   */\n      mstore\n        /* \"#utility.yul\":8297:8428   */\n      tag_271\n        /* \"#utility.yul\":8423:8427   */\n      dup2\n        /* \"#utility.yul\":8297:8428   */\n      tag_154\n      jump\t// in\n    tag_271:\n        /* \"#utility.yul\":8289:8428   */\n      swap1\n      pop\n        /* \"#utility.yul\":8016:8435   */\n      swap2\n      swap1\n      pop\n      jump\t// out\n        /* \"#utility.yul\":8441:8621   */\n    tag_155:\n        /* \"#utility.yul\":8489:8566   */\n      0x4e487b7100000000000000000000000000000000000000000000000000000000\n        /* \"#utility.yul\":8486:8487   */\n      0x00\n        /* \"#utility.yul\":8479:8567   */\n      mstore\n        /* \"#utility.yul\":8586:8590   */\n      0x11\n        /* \"#utility.yul\":8583:8584   */\n      0x04\n        /* \"#utility.yul\":8576:8591   */\n      mstore\n        /* \"#utility.yul\":8610:8614   */\n      0x24\n        /* \"#utility.yul\":8607:8608   */\n      0x00\n        /* \"#utility.yul\":8600:8615   */\n      revert\n        /* \"#utility.yul\":8627:8860   */\n    tag_49:\n        /* \"#utility.yul\":8666:8669   */\n      0x00\n        /* \"#utility.yul\":8689:8713   */\n      tag_274\n        /* \"#utility.yul\":8707:8712   */\n      dup3\n        /* \"#utility.yul\":8689:8713   */\n      tag_125\n      jump\t// in\n    tag_274:\n        /* \"#utility.yul\":8680:8713   */\n      swap2\n      pop\n        /* \"#utility.yul\":8735:8801   */\n      0xffffffffffffffffffffffffffffffffffffffffffffffffffffffffffffffff\n        /* \"#utility.yul\":8728:8733   */\n      dup3\n        /* \"#utility.yul\":8725:8802   */\n      sub\n        /* \"#utility.yul\":8722:8825   */\n      tag_275\n      jumpi\n        /* \"#utility.yul\":8805:8823   */\n      tag_276\n      tag_155\n      jump\t// in\n    tag_276:\n        /* \"#utility.yul\":8722:8825   */\n    tag_275:\n        /* \"#utility.yul\":8852:8853   */\n      0x01\n        /* \"#utility.yul\":8845:8850   */\n      dup3\n        /* \"#utility.yul\":8841:8854   */\n      add\n        /* \"#utility.yul\":8834:8854   */\n      swap1\n      pop\n        /* \"#utility.yul\":8627:8860   */\n      swap2\n      swap1\n      pop\n      jump\t// out\n        /* \"#utility.yul\":8866:9046   */\n    tag_156:\n        /* \"#utility.yul\":8914:8991   */\n      0x4e487b7100000000000000000000000000000000000000000000000000000000\n        /* \"#utility.yul\":8911:8912   */\n      0x00\n        /* \"#utility.yul\":8904:8992   */\n      mstore\n        /* \"#utility.yul\":9011:9015   */\n      0x22\n        /* \"#utility.yul\":9008:9009   */\n      0x04\n        /* \"#utility.yul\":9001:9016   */\n      mstore\n        /* \"#utility.yul\":9035:9039   */\n      0x24\n        /* \"#utility.yul\":9032:9033   */\n      0x00\n        /* \"#utility.yul\":9025:9040   */\n      revert\n        /* \"#utility.yul\":9052:9372   */\n    tag_88:\n        /* \"#utility.yul\":9096:9102   */\n      0x00\n        /* \"#utility.yul\":9133:9134   */\n      0x02\n        /* \"#utility.yul\":9127:9131   */\n      dup3\n        /* \"#utility.yul\":9123:9135   */\n      div\n        /* \"#utility.yul\":9113:9135   */\n      swap1\n      pop\n        /* \"#utility.yul\":9180:9181   */\n      0x01\n        /* \"#utility.yul\":9174:9178   */\n      dup3\n        /* \"#utility.yul\":9170:9182   */\n      and\n        /* \"#utility.yul\":9201:9219   */\n      dup1\n        /* \"#utility.yul\":9191:9272   */\n      tag_279\n      jumpi\n        /* \"#utility.yul\":9257:9261   */\n      0x7f\n        /* \"#utility.yul\":9249:9255   */\n      dup3\n        /* \"#utility.yul\":9245:9262   */\n      and\n        /* \"#utility.yul\":9235:9262   */\n      swap2\n      pop\n        /* \"#utility.yul\":9191:9272   */\n    tag_279:\n        /* \"#utility.yul\":9319:9321   */\n      0x20\n        /* \"#utility.yul\":9311:9317   */\n      dup3\n        /* \"#utility.yul\":9308:9322   */\n      lt\n        /* \"#utility.yul\":9288:9306   */\n      dup2\n        /* \"#utility.yul\":9285:9323   */\n      sub\n        /* \"#utility.yul\":9282:9366   */\n      tag_280\n      jumpi\n        /* \"#utility.yul\":9338:9356   */\n      tag_281\n      tag_156\n      jump\t// in\n    tag_281:\n        /* \"#utility.yul\":9282:9366   */\n    tag_280:\n        /* \"#utility.yul\":9103:9372   */\n      pop\n        /* \"#utility.yul\":9052:9372   */\n      swap2\n      swap1\n      pop\n      jump\t// out\n        /* \"#utility.yul\":9378:9519   */\n    tag_157:\n        /* \"#utility.yul\":9427:9431   */\n      0x00\n        /* \"#utility.yul\":9450:9453   */\n      dup2\n        /* \"#utility.yul\":9442:9453   */\n      swap1\n      pop\n        /* \"#utility.yul\":9473:9476   */\n      dup2\n        /* \"#utility.yul\":9470:9471   */\n      0x00\n        /* \"#utility.yul\":9463:9477   */\n      mstore\n        /* \"#utility.yul\":9507:9511   */\n      0x20\n        /* \"#utility.yul\":9504:9505   */\n      0x00\n        /* \"#utility.yul\":9494:9512   */\n      keccak256\n        /* \"#utility.yul\":9486:9512   */\n      swap1\n      pop\n        /* \"#utility.yul\":9378:9519   */\n      swap2\n      swap1\n      pop\n      jump\t// out\n        /* \"#utility.yul\":9525:9618   */\n    tag_158:\n        /* \"#utility.yul\":9562:9568   */\n      0x00\n        /* \"#utility.yul\":9609:9611   */\n      0x20\n        /* \"#utility.yul\":9604:9606   */\n      0x1f\n        /* \"#utility.yul\":9597:9602   */\n      dup4\n        /* \"#utility.yul\":9593:9607   */\n      add\n        /* \"#utility.yul\":9589:9612   */\n      div\n        /* \"#utility.yul\":9579:9612   */\n      swap1\n      pop\n        /* \"#utility.yul\":9525:9618   */\n      swap2\n      swap1\n      pop\n      jump\t// out\n        /* \"#utility.yul\":9624:9731   */\n    tag_159:\n        /* \"#utility.yul\":9668:9676   */\n      0x00\n        /* \"#utility.yul\":9718:9723   */\n      dup3\n        /* \"#utility.yul\":9712:9716   */\n      dup3\n        /* \"#utility.yul\":9708:9724   */\n      shl\n        /* \"#utility.yul\":9687:9724   */\n      swap1\n      pop\n        /* \"#utility.yul\":9624:9731   */\n      swap3\n      swap2\n      pop\n      pop\n      jump\t// out\n        /* \"#utility.yul\":9737:10130   */\n    tag_160:\n        /* \"#utility.yul\":9806:9812   */\n      0x00\n        /* \"#utility.yul\":9856:9857   */\n      0x08\n        /* \"#utility.yul\":9844:9854   */\n      dup4\n        /* \"#utility.yul\":9840:9858   */\n      mul\n        /* \"#utility.yul\":9879:9976   */\n      tag_286\n        /* \"#utility.yul\":9909:9975   */\n      0xffffffffffffffffffffffffffffffffffffffffffffffffffffffffffffffff\n        /* \"#utility.yul\":9898:9907   */\n      dup3\n        /* \"#utility.yul\":9879:9976   */\n      tag_159\n      jump\t// in\n    tag_286:\n        /* \"#utility.yul\":9997:10036   */\n      tag_287\n        /* \"#utility.yul\":10027:10035   */\n      dup7\n        /* \"#utility.yul\":10016:10025   */\n      dup4\n        /* \"#utility.yul\":9997:10036   */\n      tag_159\n      jump\t// in\n    tag_287:\n        /* \"#utility.yul\":9985:10036   */\n      swap6\n      pop\n        /* \"#utility.yul\":10069:10073   */\n      dup1\n        /* \"#utility.yul\":10065:10074   */\n      not\n        /* \"#utility.yul\":10058:10063   */\n      dup5\n        /* \"#utility.yul\":10054:10075   */\n      and\n        /* \"#utility.yul\":10045:10075   */\n      swap4\n      pop\n        /* \"#utility.yul\":10118:10122   */\n      dup1\n        /* \"#utility.yul\":10108:10116   */\n      dup7\n        /* \"#utility.yul\":10104:10123   */\n      and\n        /* \"#utility.yul\":10097:10102   */\n      dup5\n        /* \"#utility.yul\":10094:10124   */\n      or\n        /* \"#utility.yul\":10084:10124   */\n      swap3\n      pop\n        /* \"#utility.yul\":9813:10130   */\n      pop\n      pop\n        /* \"#utility.yul\":9737:10130   */\n      swap4\n      swap3\n      pop\n      pop\n      pop\n      jump\t// out\n        /* \"#utility.yul\":10136:10196   */\n    tag_161:\n        /* \"#utility.yul\":10164:10167   */\n      0x00\n        /* \"#utility.yul\":10185:10190   */\n      dup2\n        /* \"#utility.yul\":10178:10190   */\n      swap1\n      pop\n        /* \"#utility.yul\":10136:10196   */\n      swap2\n      swap1\n      pop\n      jump\t// out\n        /* \"#utility.yul\":10202:10344   */\n    tag_162:\n        /* \"#utility.yul\":10252:10261   */\n      0x00\n        /* \"#utility.yul\":10285:10338   */\n      tag_290\n        /* \"#utility.yul\":10303:10337   */\n      tag_291\n        /* \"#utility.yul\":10312:10336   */\n      tag_292\n        /* \"#utility.yul\":10330:10335   */\n      dup5\n        /* \"#utility.yul\":10312:10336   */\n      tag_125\n      jump\t// in\n    tag_292:\n        /* \"#utility.yul\":10303:10337   */\n      tag_161\n      jump\t// in\n    tag_291:\n        /* \"#utility.yul\":10285:10338   */\n      tag_125\n      jump\t// in\n    tag_290:\n        /* \"#utility.yul\":10272:10338   */\n      swap1\n      pop\n        /* \"#utility.yul\":10202:10344   */\n      swap2\n      swap1\n      pop\n      jump\t// out\n        /* \"#utility.yul\":10350:10425   */\n    tag_163:\n        /* \"#utility.yul\":10393:10396   */\n      0x00\n        /* \"#utility.yul\":10414:10419   */\n      dup2\n        /* \"#utility.yul\":10407:10419   */\n      swap1\n      pop\n        /* \"#utility.yul\":10350:10425   */\n      swap2\n      swap1\n      pop\n      jump\t// out\n        /* \"#utility.yul\":10431:10700   */\n    tag_164:\n        /* \"#utility.yul\":10541:10580   */\n      tag_295\n        /* \"#utility.yul\":10572:10579   */\n      dup4\n        /* \"#utility.yul\":10541:10580   */\n      tag_162\n      jump\t// in\n    tag_295:\n        /* \"#utility.yul\":10602:10693   */\n      tag_296\n        /* \"#utility.yul\":10651:10692   */\n      tag_297\n        /* \"#utility.yul\":10675:10691   */\n      dup3\n        /* \"#utility.yul\":10651:10692   */\n      tag_163\n      jump\t// in\n    tag_297:\n        /* \"#utility.yul\":10643:10649   */\n      dup5\n        /* \"#utility.yul\":10636:10640   */\n      dup5\n        /* \"#utility.yul\":10630:10641   */\n      sload\n        /* \"#utility.yul\":10602:10693   */\n      tag_160\n      jump\t// in\n    tag_296:\n        /* \"#utility.yul\":10596:10600   */\n      dup3\n        /* \"#utility.yul\":10589:10694   */\n      sstore\n        /* \"#utility.yul\":10507:10700   */\n      pop\n        /* \"#utility.yul\":10431:10700   */\n      pop\n      pop\n      pop\n      jump\t// out\n        /* \"#utility.yul\":10706:10779   */\n    tag_165:\n        /* \"#utility.yul\":10751:10754   */\n      0x00\n        /* \"#utility.yul\":10772:10773   */\n      0x00\n        /* \"#utility.yul\":10765:10773   */\n      swap1\n      pop\n        /* \"#utility.yul\":10706:10779   */\n      swap1\n      jump\t// out\n        /* \"#utility.yul\":10785:10974   */\n    tag_166:\n        /* \"#utility.yul\":10862:10894   */\n      tag_300\n      tag_165\n      jump\t// in\n    tag_300:\n        /* \"#utility.yul\":10903:10968   */\n      tag_301\n        /* \"#utility.yul\":10961:10967   */\n      dup2\n        /* \"#utility.yul\":10953:10959   */\n      dup5\n        /* \"#utility.yul\":10947:10951   */\n      dup5\n        /* \"#utility.yul\":10903:10968   */\n      tag_164\n      jump\t// in\n    tag_301:\n        /* \"#utility.yul\":10838:10974   */\n      pop\n        /* \"#utility.yul\":10785:10974   */\n      pop\n      pop\n      jump\t// out\n        /* \"#utility.yul\":10980:11166   */\n    tag_167:\n        /* \"#utility.yul\":11040:11160   */\n    tag_303:\n        /* \"#utility.yul\":11057:11060   */\n      dup2\n        /* \"#utility.yul\":11050:11055   */\n      dup2\n        /* \"#utility.yul\":11047:11061   */\n      lt\n        /* \"#utility.yul\":11040:11160   */\n      iszero\n      tag_305\n      jumpi\n        /* \"#utility.yul\":11111:11150   */\n      tag_306\n        /* \"#utility.yul\":11148:11149   */\n      0x00\n        /* \"#utility.yul\":11141:11146   */\n      dup3\n        /* \"#utility.yul\":11111:11150   */\n      tag_166\n      jump\t// in\n    tag_306:\n        /* \"#utility.yul\":11084:11085   */\n      0x01\n        /* \"#utility.yul\":11077:11082   */\n      dup2\n        /* \"#utility.yul\":11073:11086   */\n      add\n        /* \"#utility.yul\":11064:11086   */\n      swap1\n      pop\n        /* \"#utility.yul\":11040:11160   */\n      jump(tag_303)\n    tag_305:\n        /* \"#utility.yul\":10980:11166   */\n      pop\n      pop\n      jump\t// out\n        /* \"#utility.yul\":11172:11715   */\n    tag_168:\n        /* \"#utility.yul\":11273:11275   */\n      0x1f\n        /* \"#utility.yul\":11268:11271   */\n      dup3\n        /* \"#utility.yul\":11265:11276   */\n      gt\n        /* \"#utility.yul\":11262:11708   */\n      iszero\n      tag_308\n      jumpi\n        /* \"#utility.yul\":11307:11345   */\n      tag_309\n        /* \"#utility.yul\":11339:11344   */\n      dup2\n        /* \"#utility.yul\":11307:11345   */\n      tag_157\n      jump\t// in\n    tag_309:\n        /* \"#utility.yul\":11391:11420   */\n      tag_310\n        /* \"#utility.yul\":11409:11419   */\n      dup5\n        /* \"#utility.yul\":11391:11420   */\n      tag_158\n      jump\t// in\n    tag_310:\n        /* \"#utility.yul\":11381:11389   */\n      dup2\n        /* \"#utility.yul\":11377:11421   */\n      add\n        /* \"#utility.yul\":11574:11576   */\n      0x20\n        /* \"#utility.yul\":11562:11572   */\n      dup6\n        /* \"#utility.yul\":11559:11577   */\n      lt\n        /* \"#utility.yul\":11556:11605   */\n      iszero\n      tag_311\n      jumpi\n        /* \"#utility.yul\":11595:11603   */\n      dup2\n        /* \"#utility.yul\":11580:11603   */\n      swap1\n      pop\n        /* \"#utility.yul\":11556:11605   */\n    tag_311:\n        /* \"#utility.yul\":11618:11698   */\n      tag_312\n        /* \"#utility.yul\":11674:11696   */\n      tag_313\n        /* \"#utility.yul\":11692:11695   */\n      dup6\n        /* \"#utility.yul\":11674:11696   */\n      tag_158\n      jump\t// in\n    tag_313:\n        /* \"#utility.yul\":11664:11672   */\n      dup4\n        /* \"#utility.yul\":11660:11697   */\n      add\n        /* \"#utility.yul\":11647:11658   */\n      dup3\n        /* \"#utility.yul\":11618:11698   */\n      tag_167\n      jump\t// in\n    tag_312:\n        /* \"#utility.yul\":11277:11708   */\n      pop\n      pop\n        /* \"#utility.yul\":11262:11708   */\n    tag_308:\n        /* \"#utility.yul\":11172:11715   */\n      pop\n      pop\n      pop\n      jump\t// out\n        /* \"#utility.yul\":11721:11838   */\n    tag_169:\n        /* \"#utility.yul\":11775:11783   */\n      0x00\n        /* \"#utility.yul\":11825:11830   */\n      dup3\n        /* \"#utility.yul\":11819:11823   */\n      dup3\n        /* \"#utility.yul\":11815:11831   */\n      shr\n        /* \"#utility.yul\":11794:11831   */\n      swap1\n      pop\n        /* \"#utility.yul\":11721:11838   */\n      swap3\n      swap2\n      pop\n      pop\n      jump\t// out\n        /* \"#utility.yul\":11844:12013   */\n    tag_170:\n        /* \"#utility.yul\":11888:11894   */\n      0x00\n        /* \"#utility.yul\":11921:11972   */\n      tag_316\n        /* \"#utility.yul\":11969:11970   */\n      0x00\n        /* \"#utility.yul\":11965:11971   */\n      not\n        /* \"#utility.yul\":11957:11962   */\n      dup5\n        /* \"#utility.yul\":11954:11955   */\n      0x08\n        /* \"#utility.yul\":11950:11963   */\n      mul\n        /* \"#utility.yul\":11921:11972   */\n      tag_169\n      jump\t// in\n    tag_316:\n        /* \"#utility.yul\":11917:11973   */\n      not\n        /* \"#utility.yul\":12002:12006   */\n      dup1\n        /* \"#utility.yul\":11996:12000   */\n      dup4\n        /* \"#utility.yul\":11992:12007   */\n      and\n        /* \"#utility.yul\":11982:12007   */\n      swap2\n      pop\n        /* \"#utility.yul\":11895:12013   */\n      pop\n        /* \"#utility.yul\":11844:12013   */\n      swap3\n      swap2\n      pop\n      pop\n      jump\t// out\n        /* \"#utility.yul\":12018:12313   */\n    tag_171:\n        /* \"#utility.yul\":12094:12098   */\n      0x00\n        /* \"#utility.yul\":12240:12269   */\n      tag_318\n        /* \"#utility.yul\":12265:12268   */\n      dup4\n        /* \"#utility.yul\":12259:12263   */\n      dup4\n        /* \"#utility.yul\":12240:12269   */\n      tag_170\n      jump\t// in\n    tag_318:\n        /* \"#utility.yul\":12232:12269   */\n      swap2\n      pop\n        /* \"#utility.yul\":12302:12305   */\n      dup3\n        /* \"#utility.yul\":12299:12300   */\n      0x02\n        /* \"#utility.yul\":12295:12306   */\n      mul\n        /* \"#utility.yul\":12289:12293   */\n      dup3\n        /* \"#utility.yul\":12286:12307   */\n      or\n        /* \"#utility.yul\":12278:12307   */\n      swap1\n      pop\n        /* \"#utility.yul\":12018:12313   */\n      swap3\n      swap2\n      pop\n      pop\n      jump\t// out\n        /* \"#utility.yul\":12318:13713   */\n    tag_54:\n        /* \"#utility.yul\":12435:12472   */\n      tag_320\n        /* \"#utility.yul\":12468:12471   */\n      dup3\n        /* \"#utility.yul\":12435:12472   */\n      tag_142\n      jump\t// in\n    tag_320:\n        /* \"#utility.yul\":12537:12555   */\n      0xffffffffffffffff\n        /* \"#utility.yul\":12529:12535   */\n      dup2\n        /* \"#utility.yul\":12526:12556   */\n      gt\n        /* \"#utility.yul\":12523:12579   */\n      iszero\n      tag_321\n      jumpi\n        /* \"#utility.yul\":12559:12577   */\n      tag_322\n      tag_133\n      jump\t// in\n    tag_322:\n        /* \"#utility.yul\":12523:12579   */\n    tag_321:\n        /* \"#utility.yul\":12603:12641   */\n      tag_323\n        /* \"#utility.yul\":12635:12639   */\n      dup3\n        /* \"#utility.yul\":12629:12640   */\n      sload\n        /* \"#utility.yul\":12603:12641   */\n      tag_88\n      jump\t// in\n    tag_323:\n        /* \"#utility.yul\":12688:12755   */\n      tag_324\n        /* \"#utility.yul\":12748:12754   */\n      dup3\n        /* \"#utility.yul\":12740:12746   */\n      dup3\n        /* \"#utility.yul\":12734:12738   */\n      dup6\n        /* \"#utility.yul\":12688:12755   */\n      tag_168\n      jump\t// in\n    tag_324:\n        /* \"#utility.yul\":12782:12783   */\n      0x00\n        /* \"#utility.yul\":12806:12810   */\n      0x20\n        /* \"#utility.yul\":12793:12810   */\n      swap1\n      pop\n        /* \"#utility.yul\":12838:12840   */\n      0x1f\n        /* \"#utility.yul\":12830:12836   */\n      dup4\n        /* \"#utility.yul\":12827:12841   */\n      gt\n        /* \"#utility.yul\":12855:12856   */\n      0x01\n        /* \"#utility.yul\":12850:13468   */\n      dup2\n      eq\n      tag_326\n      jumpi\n        /* \"#utility.yul\":13512:13513   */\n      0x00\n        /* \"#utility.yul\":13529:13535   */\n      dup5\n        /* \"#utility.yul\":13526:13603   */\n      iszero\n      tag_327\n      jumpi\n        /* \"#utility.yul\":13578:13587   */\n      dup3\n        /* \"#utility.yul\":13573:13576   */\n      dup8\n        /* \"#utility.yul\":13569:13588   */\n      add\n        /* \"#utility.yul\":13563:13589   */\n      mload\n        /* \"#utility.yul\":13554:13589   */\n      swap1\n      pop\n        /* \"#utility.yul\":13526:13603   */\n    tag_327:\n        /* \"#utility.yul\":13629:13696   */\n      tag_328\n        /* \"#utility.yul\":13689:13695   */\n      dup6\n        /* \"#utility.yul\":13682:13687   */\n      dup3\n        /* \"#utility.yul\":13629:13696   */\n      tag_171\n      jump\t// in\n    tag_328:\n        /* \"#utility.yul\":13623:13627   */\n      dup7\n        /* \"#utility.yul\":13616:13697   */\n      sstore\n        /* \"#utility.yul\":13485:13707   */\n      pop\n        /* \"#utility.yul\":12820:13707   */\n      jump(tag_325)\n        /* \"#utility.yul\":12850:13468   */\n    tag_326:\n        /* \"#utility.yul\":12902:12906   */\n      0x1f\n        /* \"#utility.yul\":12898:12907   */\n      not\n        /* \"#utility.yul\":12890:12896   */\n      dup5\n        /* \"#utility.yul\":12886:12908   */\n      and\n        /* \"#utility.yul\":12936:12973   */\n      tag_329\n        /* \"#utility.yul\":12968:12972   */\n      dup7\n        /* \"#utility.yul\":12936:12973   */\n      tag_157\n      jump\t// in\n    tag_329:\n        /* \"#utility.yul\":12995:12996   */\n      0x00\n        /* \"#utility.yul\":13009:13217   */\n    tag_330:\n        /* \"#utility.yul\":13023:13030   */\n      dup3\n        /* \"#utility.yul\":13020:13021   */\n      dup2\n        /* \"#utility.yul\":13017:13031   */\n      lt\n        /* \"#utility.yul\":13009:13217   */\n      iszero\n      tag_332\n      jumpi\n        /* \"#utility.yul\":13102:13111   */\n      dup5\n        /* \"#utility.yul\":13097:13100   */\n      dup10\n        /* \"#utility.yul\":13093:13112   */\n      add\n        /* \"#utility.yul\":13087:13113   */\n      mload\n        /* \"#utility.yul\":13079:13085   */\n      dup3\n        /* \"#utility.yul\":13072:13114   */\n      sstore\n        /* \"#utility.yul\":13153:13154   */\n      0x01\n        /* \"#utility.yul\":13145:13151   */\n      dup3\n        /* \"#utility.yul\":13141:13155   */\n      add\n        /* \"#utility.yul\":13131:13155   */\n      swap2\n      pop\n        /* \"#utility.yul\":13200:13202   */\n      0x20\n        /* \"#utility.yul\":13189:13198   */\n      dup6\n        /* \"#utility.yul\":13185:13203   */\n      add\n        /* \"#utility.yul\":13172:13203   */\n      swap5\n      pop\n        /* \"#utility.yul\":13046:13050   */\n      0x20\n        /* \"#utility.yul\":13043:13044   */\n      dup2\n        /* \"#utility.yul\":13039:13051   */\n      add\n        /* \"#utility.yul\":13034:13051   */\n      swap1\n      pop\n        /* \"#utility.yul\":13009:13217   */\n      jump(tag_330)\n    tag_332:\n        /* \"#utility.yul\":13245:13251   */\n      dup7\n        /* \"#utility.yul\":13236:13243   */\n      dup4\n        /* \"#utility.yul\":13233:13252   */\n      lt\n        /* \"#utility.yul\":13230:13409   */\n      iszero\n      tag_333\n      jumpi\n        /* \"#utility.yul\":13303:13312   */\n      dup5\n        /* \"#utility.yul\":13298:13301   */\n      dup10\n        /* \"#utility.yul\":13294:13313   */\n      add\n        /* \"#utility.yul\":13288:13314   */\n      mload\n        /* \"#utility.yul\":13346:13394   */\n      tag_334\n        /* \"#utility.yul\":13388:13392   */\n      0x1f\n        /* \"#utility.yul\":13380:13386   */\n      dup10\n        /* \"#utility.yul\":13376:13393   */\n      and\n        /* \"#utility.yul\":13365:13374   */\n      dup3\n        /* \"#utility.yul\":13346:13394   */\n      tag_170\n      jump\t// in\n    tag_334:\n        /* \"#utility.yul\":13338:13344   */\n      dup4\n        /* \"#utility.yul\":13331:13395   */\n      sstore\n        /* \"#utility.yul\":13253:13409   */\n      pop\n        /* \"#utility.yul\":13230:13409   */\n    tag_333:\n        /* \"#utility.yul\":13455:13456   */\n      0x01\n        /* \"#utility.yul\":13451:13452   */\n      0x02\n        /* \"#utility.yul\":13443:13449   */\n      dup9\n        /* \"#utility.yul\":13439:13453   */\n      mul\n        /* \"#utility.yul\":13435:13457   */\n      add\n        /* \"#utility.yul\":13429:13433   */\n      dup9\n        /* \"#utility.yul\":13422:13458   */\n      sstore\n        /* \"#utility.yul\":12857:13468   */\n      pop\n      pop\n      pop\n        /* \"#utility.yul\":12820:13707   */\n    tag_325:\n      pop\n        /* \"#utility.yul\":12410:13713   */\n      pop\n      pop\n      pop\n        /* \"#utility.yul\":12318:13713   */\n      pop\n      pop\n      jump\t// out\n        /* \"#utility.yul\":13719:14233   */\n    tag_59:\n        /* \"#utility.yul\":13880:13884   */\n      0x00\n        /* \"#utility.yul\":13918:13920   */\n      0x40\n        /* \"#utility.yul\":13907:13916   */\n      dup3\n        /* \"#utility.yul\":13903:13921   */\n      add\n        /* \"#utility.yul\":13895:13921   */\n      swap1\n      pop\n        /* \"#utility.yul\":13967:13976   */\n      dup2\n        /* \"#utility.yul\":13961:13965   */\n      dup2\n        /* \"#utility.yul\":13957:13977   */\n      sub\n        /* \"#utility.yul\":13953:13954   */\n      0x00\n        /* \"#utility.yul\":13942:13951   */\n      dup4\n        /* \"#utility.yul\":13938:13955   */\n      add\n        /* \"#utility.yul\":13931:13978   */\n      mstore\n        /* \"#utility.yul\":13995:14073   */\n      tag_336\n        /* \"#utility.yul\":14068:14072   */\n      dup2\n        /* \"#utility.yul\":14059:14065   */\n      dup6\n        /* \"#utility.yul\":13995:14073   */\n      tag_145\n      jump\t// in\n    tag_336:\n        /* \"#utility.yul\":13987:14073   */\n      swap1\n      pop\n        /* \"#utility.yul\":14120:14129   */\n      dup2\n        /* \"#utility.yul\":14114:14118   */\n      dup2\n        /* \"#utility.yul\":14110:14130   */\n      sub\n        /* \"#utility.yul\":14105:14107   */\n      0x20\n        /* \"#utility.yul\":14094:14103   */\n      dup4\n        /* \"#utility.yul\":14090:14108   */\n      add\n        /* \"#utility.yul\":14083:14131   */\n      mstore\n        /* \"#utility.yul\":14148:14226   */\n      tag_337\n        /* \"#utility.yul\":14221:14225   */\n      dup2\n        /* \"#utility.yul\":14212:14218   */\n      dup5\n        /* \"#utility.yul\":14148:14226   */\n      tag_145\n      jump\t// in\n    tag_337:\n        /* \"#utility.yul\":14140:14226   */\n      swap1\n      pop\n        /* \"#utility.yul\":13719:14233   */\n      swap4\n      swap3\n      pop\n      pop\n      pop\n      jump\t// out\n        /* \"#utility.yul\":14239:14415   */\n    tag_172:\n        /* \"#utility.yul\":14379:14407   */\n      0x45717569706d656e74206973206e6f7420626f72726f7765642e000000000000\n        /* \"#utility.yul\":14375:14376   */\n      0x00\n        /* \"#utility.yul\":14367:14373   */\n      dup3\n        /* \"#utility.yul\":14363:14377   */\n      add\n        /* \"#utility.yul\":14356:14408   */\n      mstore\n        /* \"#utility.yul\":14239:14415   */\n      pop\n      jump\t// out\n        /* \"#utility.yul\":14421:14787   */\n    tag_173:\n        /* \"#utility.yul\":14563:14566   */\n      0x00\n        /* \"#utility.yul\":14584:14651   */\n      tag_340\n        /* \"#utility.yul\":14648:14650   */\n      0x1a\n        /* \"#utility.yul\":14643:14646   */\n      dup4\n        /* \"#utility.yul\":14584:14651   */\n      tag_143\n      jump\t// in\n    tag_340:\n        /* \"#utility.yul\":14577:14651   */\n      swap2\n      pop\n        /* \"#utility.yul\":14660:14753   */\n      tag_341\n        /* \"#utility.yul\":14749:14752   */\n      dup3\n        /* \"#utility.yul\":14660:14753   */\n      tag_172\n      jump\t// in\n    tag_341:\n        /* \"#utility.yul\":14778:14780   */\n      0x20\n        /* \"#utility.yul\":14773:14776   */\n      dup3\n        /* \"#utility.yul\":14769:14781   */\n      add\n        /* \"#utility.yul\":14762:14781   */\n      swap1\n      pop\n        /* \"#utility.yul\":14421:14787   */\n      swap2\n      swap1\n      pop\n      jump\t// out\n        /* \"#utility.yul\":14793:15212   */\n    tag_67:\n        /* \"#utility.yul\":14959:14963   */\n      0x00\n        /* \"#utility.yul\":14997:14999   */\n      0x20\n        /* \"#utility.yul\":14986:14995   */\n      dup3\n        /* \"#utility.yul\":14982:15000   */\n      add\n        /* \"#utility.yul\":14974:15000   */\n      swap1\n      pop\n        /* \"#utility.yul\":15046:15055   */\n      dup2\n        /* \"#utility.yul\":15040:15044   */\n      dup2\n        /* \"#utility.yul\":15036:15056   */\n      sub\n        /* \"#utility.yul\":15032:15033   */\n      0x00\n        /* \"#utility.yul\":15021:15030   */\n      dup4\n        /* \"#utility.yul\":15017:15034   */\n      add\n        /* \"#utility.yul\":15010:15057   */\n      mstore\n        /* \"#utility.yul\":15074:15205   */\n      tag_343\n        /* \"#utility.yul\":15200:15204   */\n      dup2\n        /* \"#utility.yul\":15074:15205   */\n      tag_173\n      jump\t// in\n    tag_343:\n        /* \"#utility.yul\":15066:15205   */\n      swap1\n      pop\n        /* \"#utility.yul\":14793:15212   */\n      swap2\n      swap1\n      pop\n      jump\t// out\n        /* \"#utility.yul\":15218:15440   */\n    tag_174:\n        /* \"#utility.yul\":15358:15392   */\n      0x4f6e6c7920626f72726f7765722063616e2072657475726e2065717569706d65\n        /* \"#utility.yul\":15354:15355   */\n      0x00\n        /* \"#utility.yul\":15346:15352   */\n      dup3\n        /* \"#utility.yul\":15342:15356   */\n      add\n        /* \"#utility.yul\":15335:15393   */\n      mstore\n        /* \"#utility.yul\":15427:15432   */\n      0x6e742e0000000000000000000000000000000000000000000000000000000000\n        /* \"#utility.yul\":15422:15424   */\n      0x20\n        /* \"#utility.yul\":15414:15420   */\n      dup3\n        /* \"#utility.yul\":15410:15425   */\n      add\n        /* \"#utility.yul\":15403:15433   */\n      mstore\n        /* \"#utility.yul\":15218:15440   */\n      pop\n      jump\t// out\n        /* \"#utility.yul\":15446:15812   */\n    tag_175:\n        /* \"#utility.yul\":15588:15591   */\n      0x00\n        /* \"#utility.yul\":15609:15676   */\n      tag_346\n        /* \"#utility.yul\":15673:15675   */\n      0x23\n        /* \"#utility.yul\":15668:15671   */\n      dup4\n        /* \"#utility.yul\":15609:15676   */\n      tag_143\n      jump\t// in\n    tag_346:\n        /* \"#utility.yul\":15602:15676   */\n      swap2\n      pop\n        /* \"#utility.yul\":15685:15778   */\n      tag_347\n        /* \"#utility.yul\":15774:15777   */\n      dup3\n        /* \"#utility.yul\":15685:15778   */\n      tag_174\n      jump\t// in\n    tag_347:\n        /* \"#utility.yul\":15803:15805   */\n      0x40\n        /* \"#utility.yul\":15798:15801   */\n      dup3\n        /* \"#utility.yul\":15794:15806   */\n      add\n        /* \"#utility.yul\":15787:15806   */\n      swap1\n      pop\n        /* \"#utility.yul\":15446:15812   */\n      swap2\n      swap1\n      pop\n      jump\t// out\n        /* \"#utility.yul\":15818:16237   */\n    tag_70:\n        /* \"#utility.yul\":15984:15988   */\n      0x00\n        /* \"#utility.yul\":16022:16024   */\n      0x20\n        /* \"#utility.yul\":16011:16020   */\n      dup3\n        /* \"#utility.yul\":16007:16025   */\n      add\n        /* \"#utility.yul\":15999:16025   */\n      swap1\n      pop\n        /* \"#utility.yul\":16071:16080   */\n      dup2\n        /* \"#utility.yul\":16065:16069   */\n      dup2\n        /* \"#utility.yul\":16061:16081   */\n      sub\n        /* \"#utility.yul\":16057:16058   */\n      0x00\n        /* \"#utility.yul\":16046:16055   */\n      dup4\n        /* \"#utility.yul\":16042:16059   */\n      add\n        /* \"#utility.yul\":16035:16082   */\n      mstore\n        /* \"#utility.yul\":16099:16230   */\n      tag_349\n        /* \"#utility.yul\":16225:16229   */\n      dup2\n        /* \"#utility.yul\":16099:16230   */\n      tag_175\n      jump\t// in\n    tag_349:\n        /* \"#utility.yul\":16091:16230   */\n      swap1\n      pop\n        /* \"#utility.yul\":15818:16237   */\n      swap2\n      swap1\n      pop\n      jump\t// out\n        /* \"#utility.yul\":16243:16418   */\n    tag_176:\n        /* \"#utility.yul\":16383:16410   */\n      0x45717569706d656e7420646f6573206e6f742065786973742e00000000000000\n        /* \"#utility.yul\":16379:16380   */\n      0x00\n        /* \"#utility.yul\":16371:16377   */\n      dup3\n        /* \"#utility.yul\":16367:16381   */\n      add\n        /* \"#utility.yul\":16360:16411   */\n      mstore\n        /* \"#utility.yul\":16243:16418   */\n      pop\n      jump\t// out\n        /* \"#utility.yul\":16424:16790   */\n    tag_177:\n        /* \"#utility.yul\":16566:16569   */\n      0x00\n        /* \"#utility.yul\":16587:16654   */\n      tag_352\n        /* \"#utility.yul\":16651:16653   */\n      0x19\n        /* \"#utility.yul\":16646:16649   */\n      dup4\n        /* \"#utility.yul\":16587:16654   */\n      tag_143\n      jump\t// in\n    tag_352:\n        /* \"#utility.yul\":16580:16654   */\n      swap2\n      pop\n        /* \"#utility.yul\":16663:16756   */\n      tag_353\n        /* \"#utility.yul\":16752:16755   */\n      dup3\n        /* \"#utility.yul\":16663:16756   */\n      tag_176\n      jump\t// in\n    tag_353:\n        /* \"#utility.yul\":16781:16783   */\n      0x20\n        /* \"#utility.yul\":16776:16779   */\n      dup3\n        /* \"#utility.yul\":16772:16784   */\n      add\n        /* \"#utility.yul\":16765:16784   */\n      swap1\n      pop\n        /* \"#utility.yul\":16424:16790   */\n      swap2\n      swap1\n      pop\n      jump\t// out\n        /* \"#utility.yul\":16796:17215   */\n    tag_76:\n        /* \"#utility.yul\":16962:16966   */\n      0x00\n        /* \"#utility.yul\":17000:17002   */\n      0x20\n        /* \"#utility.yul\":16989:16998   */\n      dup3\n        /* \"#utility.yul\":16985:17003   */\n      add\n        /* \"#utility.yul\":16977:17003   */\n      swap1\n      pop\n        /* \"#utility.yul\":17049:17058   */\n      dup2\n        /* \"#utility.yul\":17043:17047   */\n      dup2\n        /* \"#utility.yul\":17039:17059   */\n      sub\n        /* \"#utility.yul\":17035:17036   */\n      0x00\n        /* \"#utility.yul\":17024:17033   */\n      dup4\n        /* \"#utility.yul\":17020:17037   */\n      add\n        /* \"#utility.yul\":17013:17060   */\n      mstore\n        /* \"#utility.yul\":17077:17208   */\n      tag_355\n        /* \"#utility.yul\":17203:17207   */\n      dup2\n        /* \"#utility.yul\":17077:17208   */\n      tag_177\n      jump\t// in\n    tag_355:\n        /* \"#utility.yul\":17069:17208   */\n      swap1\n      pop\n        /* \"#utility.yul\":16796:17215   */\n      swap2\n      swap1\n      pop\n      jump\t// out\n        /* \"#utility.yul\":17221:17398   */\n    tag_178:\n        /* \"#utility.yul\":17361:17390   */\n      0x45717569706d656e74206973206e6f7420617661696c61626c652e0000000000\n        /* \"#utility.yul\":17357:17358   */\n      0x00\n        /* \"#utility.yul\":17349:17355   */\n      dup3\n        /* \"#utility.yul\":17345:17359   */\n      add\n        /* \"#utility.yul\":17338:17391   */\n      mstore\n        /* \"#utility.yul\":17221:17398   */\n      pop\n      jump\t// out\n        /* \"#utility.yul\":17404:17770   */\n    tag_179:\n        /* \"#utility.yul\":17546:17549   */\n      0x00\n        /* \"#utility.yul\":17567:17634   */\n      tag_358\n        /* \"#utility.yul\":17631:17633   */\n      0x1b\n        /* \"#utility.yul\":17626:17629   */\n      dup4\n        /* \"#utility.yul\":17567:17634   */\n      tag_143\n      jump\t// in\n    tag_358:\n        /* \"#utility.yul\":17560:17634   */\n      swap2\n      pop\n        /* \"#utility.yul\":17643:17736   */\n      tag_359\n        /* \"#utility.yul\":17732:17735   */\n      dup3\n        /* \"#utility.yul\":17643:17736   */\n      tag_178\n      jump\t// in\n    tag_359:\n        /* \"#utility.yul\":17761:17763   */\n      0x20\n        /* \"#utility.yul\":17756:17759   */\n      dup3\n        /* \"#utility.yul\":17752:17764   */\n      add\n        /* \"#utility.yul\":17745:17764   */\n      swap1\n      pop\n        /* \"#utility.yul\":17404:17770   */\n      swap2\n      swap1\n      pop\n      jump\t// out\n        /* \"#utility.yul\":17776:18195   */\n    tag_83:\n        /* \"#utility.yul\":17942:17946   */\n      0x00\n        /* \"#utility.yul\":17980:17982   */\n      0x20\n        /* \"#utility.yul\":17969:17978   */\n      dup3\n        /* \"#utility.yul\":17965:17983   */\n      add\n        /* \"#utility.yul\":17957:17983   */\n      swap1\n      pop\n        /* \"#utility.yul\":18029:18038   */\n      dup2\n        /* \"#utility.yul\":18023:18027   */\n      dup2\n        /* \"#utility.yul\":18019:18039   */\n      sub\n        /* \"#utility.yul\":18015:18016   */\n      0x00\n        /* \"#utility.yul\":18004:18013   */\n      dup4\n        /* \"#utility.yul\":18000:18017   */\n      add\n        /* \"#utility.yul\":17993:18040   */\n      mstore\n        /* \"#utility.yul\":18057:18188   */\n      tag_361\n        /* \"#utility.yul\":18183:18187   */\n      dup2\n        /* \"#utility.yul\":18057:18188   */\n      tag_179\n      jump\t// in\n    tag_361:\n        /* \"#utility.yul\":18049:18188   */\n      swap1\n      pop\n        /* \"#utility.yul\":17776:18195   */\n      swap2\n      swap1\n      pop\n      jump\t// out\n        /* \"#utility.yul\":18201:18378   */\n    tag_180:\n        /* \"#utility.yul\":18341:18370   */\n      0x45717569706d656e74206973206e6f74207265717565737465642e0000000000\n        /* \"#utility.yul\":18337:18338   */\n      0x00\n        /* \"#utility.yul\":18329:18335   */\n      dup3\n        /* \"#utility.yul\":18325:18339   */\n      add\n        /* \"#utility.yul\":18318:18371   */\n      mstore\n        /* \"#utility.yul\":18201:18378   */\n      pop\n      jump\t// out\n        /* \"#utility.yul\":18384:18750   */\n    tag_181:\n        /* \"#utility.yul\":18526:18529   */\n      0x00\n        /* \"#utility.yul\":18547:18614   */\n      tag_364\n        /* \"#utility.yul\":18611:18613   */\n      0x1b\n        /* \"#utility.yul\":18606:18609   */\n      dup4\n        /* \"#utility.yul\":18547:18614   */\n      tag_143\n      jump\t// in\n    tag_364:\n        /* \"#utility.yul\":18540:18614   */\n      swap2\n      pop\n        /* \"#utility.yul\":18623:18716   */\n      tag_365\n        /* \"#utility.yul\":18712:18715   */\n      dup3\n        /* \"#utility.yul\":18623:18716   */\n      tag_180\n      jump\t// in\n    tag_365:\n        /* \"#utility.yul\":18741:18743   */\n      0x20\n        /* \"#utility.yul\":18736:18739   */\n      dup3\n        /* \"#utility.yul\":18732:18744   */\n      add\n        /* \"#utility.yul\":18725:18744   */\n      swap1\n      pop\n        /* \"#utility.yul\":18384:18750   */\n      swap2\n      swap1\n      pop\n      jump\t// out\n        /* \"#utility.yul\":18756:19175   */\n    tag_122:\n        /* \"#utility.yul\":18922:18926   */\n      0x00\n        /* \"#utility.yul\":18960:18962   */\n      0x20\n        /* \"#utility.yul\":18949:18958   */\n      dup3\n        /* \"#utility.yul\":18945:18963   */\n      add\n        /* \"#utility.yul\":18937:18963   */\n      swap1\n      pop\n        /* \"#utility.yul\":19009:19018   */\n      dup2\n        /* \"#utility.yul\":19003:19007   */\n      dup2\n        /* \"#utility.yul\":18999:19019   */\n      sub\n        /* \"#utility.yul\":18995:18996   */\n      0x00\n        /* \"#utility.yul\":18984:18993   */\n      dup4\n        /* \"#utility.yul\":18980:18997   */\n      add\n        /* \"#utility.yul\":18973:19020   */\n      mstore\n        /* \"#utility.yul\":19037:19168   */\n      tag_367\n        /* \"#utility.yul\":19163:19167   */\n      dup2\n        /* \"#utility.yul\":19037:19168   */\n      tag_181\n      jump\t// in\n    tag_367:\n        /* \"#utility.yul\":19029:19168   */\n      swap1\n      pop\n        /* \"#utility.yul\":18756:19175   */\n      swap2\n      swap1\n      pop\n      jump\t// out\n\n    auxdata: 0xa264697066735822122064143041263d23d4a6e5b666fa2ef69dce8c896b1aa644869fafd2552c46ab4964736f6c634300081e0033\n}\n",
				"bytecode": {
					"linkReferences": {},
					"object": "6080604052348015600e575f5ffd5b50335f5f6101000a81548173ffffffffffffffffffffffffffffffffffffffff021916908373ffffffffffffffffffffffffffffffffffffffff1602179055506116758061005b5f395ff3fe608060405234801561000f575f5ffd5b5060043610610086575f3560e01c806381dd2fa01161005957806381dd2fa0146100fc578063a6efd62014610130578063d7d1bbdb14610164578063f851a4401461018057610086565b806328512d2b1461008a57806351df75fe146100a85780636db64613146100c4578063757680aa146100e0575b5f5ffd5b61009261019e565b60405161009f9190610c53565b60405180910390f35b6100c260048036038101906100bd9190610db9565b6101a4565b005b6100de60048036038101906100d99190610e59565b61039a565b005b6100fa60048036038101906100f59190610e59565b61056c565b005b61011660048036038101906101119190610e59565b6106f2565b604051610127959493929190610f96565b60405180910390f35b61014a60048036038101906101459190610e59565b6108fc565b60405161015b959493929190610f96565b60405180910390f35b61017e60048036038101906101799190610e59565b610a66565b005b610188610c17565b6040516101959190610ff5565b60405180910390f35b60015481565b5f5f9054906101000a900473ffffffffffffffffffffffffffffffffffffffff1673ffffffffffffffffffffffffffffffffffffffff163373ffffffffffffffffffffffffffffffffffffffff1614610232576040517f08c379a00000000000000000000000000000000000000000000000000000000081526004016102299061107e565b60405180910390fd5b60015f815480929190610244906110c9565b91905055506040518060a0016040528060015481526020018381526020018281526020015f600281111561027b5761027a610ee4565b5b81526020015f73ffffffffffffffffffffffffffffffffffffffff1681525060025f60015481526020019081526020015f205f820151815f015560208201518160010190816102ca919061130d565b5060408201518160020190816102e0919061130d565b506060820151816003015f6101000a81548160ff0219169083600281111561030b5761030a610ee4565b5b021790555060808201518160030160016101000a81548173ffffffffffffffffffffffffffffffffffffffff021916908373ffffffffffffffffffffffffffffffffffffffff1602179055509050506001547f01f323f0828ec808225fc2c0a1a8a9c91d0b1cc292286d19bc85da6f25078a20838360405161038e9291906113dc565b60405180910390a25050565b5f60025f8381526020019081526020015f2090506002808111156103c1576103c0610ee4565b5b816003015f9054906101000a900460ff1660028111156103e4576103e3610ee4565b5b14610424576040517f08c379a000000000000000000000000000000000000000000000000000000000815260040161041b9061145b565b60405180910390fd5b3373ffffffffffffffffffffffffffffffffffffffff168160030160019054906101000a900473ffffffffffffffffffffffffffffffffffffffff1673ffffffffffffffffffffffffffffffffffffffff16146104b6576040517f08c379a00000000000000000000000000000000000000000000000000000000081526004016104ad906114e9565b60405180910390fd5b5f816003015f6101000a81548160ff021916908360028111156104dc576104db610ee4565b5b02179055505f8160030160016101000a81548173ffffffffffffffffffffffffffffffffffffffff021916908373ffffffffffffffffffffffffffffffffffffffff1602179055503373ffffffffffffffffffffffffffffffffffffffff16827f05909368b77ddb069c4677a19ab0b404edaf0bdfd8f85dc752367e1ba1eca40660405160405180910390a35050565b5f60025f8381526020019081526020015f2090505f815f0154036105c5576040517f08c379a00000000000000000000000000000000000000000000000000000000081526004016105bc90611551565b60405180910390fd5b5f60028111156105d8576105d7610ee4565b5b816003015f9054906101000a900460ff1660028111156105fb576105fa610ee4565b5b1461063b576040517f08c379a0000000000000000000000000000000000000000000000000000000008152600401610632906115b9565b60405180910390fd5b6001816003015f6101000a81548160ff0219169083600281111561066257610661610ee4565b5b0217905550338160030160016101000a81548173ffffffffffffffffffffffffffffffffffffffff021916908373ffffffffffffffffffffffffffffffffffffffff1602179055503373ffffffffffffffffffffffffffffffffffffffff16827ffd0e835657522c860741007bba61d82e5955eced970886741d4ef79fc9e3b6cb60405160405180910390a35050565b5f6060805f5f5f60025f8881526020019081526020015f206040518060a00160405290815f820154815260200160018201805461072e9061113d565b80601f016020809104026020016040519081016040528092919081815260200182805461075a9061113d565b80156107a55780601f1061077c576101008083540402835291602001916107a5565b820191905f5260205f20905b81548152906001019060200180831161078857829003601f168201915b505050505081526020016002820180546107be9061113d565b80601f01602080910402602001604051908101604052809291908181526020018280546107ea9061113d565b80156108355780601f1061080c57610100808354040283529160200191610835565b820191905f5260205f20905b81548152906001019060200180831161081857829003601f168201915b50505050508152602001600382015f9054906101000a900460ff16600281111561086257610861610ee4565b5b600281111561087457610873610ee4565b5b81526020016003820160019054906101000a900473ffffffffffffffffffffffffffffffffffffffff1673ffffffffffffffffffffffffffffffffffffffff1673ffffffffffffffffffffffffffffffffffffffff16815250509050805f01518160200151826040015183606001518460800151955095509550955095505091939590929450565b6002602052805f5260405f205f91509050805f0154908060010180546109219061113d565b80601f016020809104026020016040519081016040528092919081815260200182805461094d9061113d565b80156109985780601f1061096f57610100808354040283529160200191610998565b820191905f5260205f20905b81548152906001019060200180831161097b57829003601f168201915b5050505050908060020180546109ad9061113d565b80601f01602080910402602001604051908101604052809291908181526020018280546109d99061113d565b8015610a245780601f106109fb57610100808354040283529160200191610a24565b820191905f5260205f20905b815481529060010190602001808311610a0757829003601f168201915b505050505090806003015f9054906101000a900460ff16908060030160019054906101000a900473ffffffffffffffffffffffffffffffffffffffff16905085565b5f5f9054906101000a900473ffffffffffffffffffffffffffffffffffffffff1673ffffffffffffffffffffffffffffffffffffffff163373ffffffffffffffffffffffffffffffffffffffff1614610af4576040517f08c379a0000000000000000000000000000000000000000000000000000000008152600401610aeb9061107e565b60405180910390fd5b5f60025f8381526020019081526020015f20905060016002811115610b1c57610b1b610ee4565b5b816003015f9054906101000a900460ff166002811115610b3f57610b3e610ee4565b5b14610b7f576040517f08c379a0000000000000000000000000000000000000000000000000000000008152600401610b7690611621565b60405180910390fd5b6002816003015f6101000a81548160ff02191690836002811115610ba657610ba5610ee4565b5b02179055508060030160019054906101000a900473ffffffffffffffffffffffffffffffffffffffff1673ffffffffffffffffffffffffffffffffffffffff16827ff3dc904660a0ea05aba8dfa1e21fbc4fb2914be2a3029da7b0fdd3e5eee20ddb60405160405180910390a35050565b5f5f9054906101000a900473ffffffffffffffffffffffffffffffffffffffff1681565b5f819050919050565b610c4d81610c3b565b82525050565b5f602082019050610c665f830184610c44565b92915050565b5f604051905090565b5f5ffd5b5f5ffd5b5f5ffd5b5f5ffd5b5f601f19601f8301169050919050565b7f4e487b71000000000000000000000000000000000000000000000000000000005f52604160045260245ffd5b610ccb82610c85565b810181811067ffffffffffffffff82111715610cea57610ce9610c95565b5b80604052505050565b5f610cfc610c6c565b9050610d088282610cc2565b919050565b5f67ffffffffffffffff821115610d2757610d26610c95565b5b610d3082610c85565b9050602081019050919050565b828183375f83830152505050565b5f610d5d610d5884610d0d565b610cf3565b905082815260208101848484011115610d7957610d78610c81565b5b610d84848285610d3d565b509392505050565b5f82601f830112610da057610d9f610c7d565b5b8135610db0848260208601610d4b565b91505092915050565b5f5f60408385031215610dcf57610dce610c75565b5b5f83013567ffffffffffffffff811115610dec57610deb610c79565b5b610df885828601610d8c565b925050602083013567ffffffffffffffff811115610e1957610e18610c79565b5b610e2585828601610d8c565b9150509250929050565b610e3881610c3b565b8114610e42575f5ffd5b50565b5f81359050610e5381610e2f565b92915050565b5f60208284031215610e6e57610e6d610c75565b5b5f610e7b84828501610e45565b91505092915050565b5f81519050919050565b5f82825260208201905092915050565b8281835e5f83830152505050565b5f610eb682610e84565b610ec08185610e8e565b9350610ed0818560208601610e9e565b610ed981610c85565b840191505092915050565b7f4e487b71000000000000000000000000000000000000000000000000000000005f52602160045260245ffd5b60038110610f2257610f21610ee4565b5b50565b5f819050610f3282610f11565b919050565b5f610f4182610f25565b9050919050565b610f5181610f37565b82525050565b5f73ffffffffffffffffffffffffffffffffffffffff82169050919050565b5f610f8082610f57565b9050919050565b610f9081610f76565b82525050565b5f60a082019050610fa95f830188610c44565b8181036020830152610fbb8187610eac565b90508181036040830152610fcf8186610eac565b9050610fde6060830185610f48565b610feb6080830184610f87565b9695505050505050565b5f6020820190506110085f830184610f87565b92915050565b7f4f6e6c792061646d696e2063616e20706572666f726d207468697320616374695f8201527f6f6e2e0000000000000000000000000000000000000000000000000000000000602082015250565b5f611068602383610e8e565b91506110738261100e565b604082019050919050565b5f6020820190508181035f8301526110958161105c565b9050919050565b7f4e487b71000000000000000000000000000000000000000000000000000000005f52601160045260245ffd5b5f6110d382610c3b565b91507fffffffffffffffffffffffffffffffffffffffffffffffffffffffffffffffff82036111055761110461109c565b5b600182019050919050565b7f4e487b71000000000000000000000000000000000000000000000000000000005f52602260045260245ffd5b5f600282049050600182168061115457607f821691505b60208210810361116757611166611110565b5b50919050565b5f819050815f5260205f209050919050565b5f6020601f8301049050919050565b5f82821b905092915050565b5f600883026111c97fffffffffffffffffffffffffffffffffffffffffffffffffffffffffffffffff8261118e565b6111d3868361118e565b95508019841693508086168417925050509392505050565b5f819050919050565b5f61120e61120961120484610c3b565b6111eb565b610c3b565b9050919050565b5f819050919050565b611227836111f4565b61123b61123382611215565b84845461119a565b825550505050565b5f5f905090565b611252611243565b61125d81848461121e565b505050565b5b81811015611280576112755f8261124a565b600181019050611263565b5050565b601f8211156112c5576112968161116d565b61129f8461117f565b810160208510156112ae578190505b6112c26112ba8561117f565b830182611262565b50505b505050565b5f82821c905092915050565b5f6112e55f19846008026112ca565b1980831691505092915050565b5f6112fd83836112d6565b9150826002028217905092915050565b61131682610e84565b67ffffffffffffffff81111561132f5761132e610c95565b5b611339825461113d565b611344828285611284565b5f60209050601f831160018114611375575f8415611363578287015190505b61136d85826112f2565b8655506113d4565b601f1984166113838661116d565b5f5b828110156113aa57848901518255600182019150602085019450602081019050611385565b868310156113c757848901516113c3601f8916826112d6565b8355505b6001600288020188555050505b505050505050565b5f6040820190508181035f8301526113f48185610eac565b905081810360208301526114088184610eac565b90509392505050565b7f45717569706d656e74206973206e6f7420626f72726f7765642e0000000000005f82015250565b5f611445601a83610e8e565b915061145082611411565b602082019050919050565b5f6020820190508181035f83015261147281611439565b9050919050565b7f4f6e6c7920626f72726f7765722063616e2072657475726e2065717569706d655f8201527f6e742e0000000000000000000000000000000000000000000000000000000000602082015250565b5f6114d3602383610e8e565b91506114de82611479565b604082019050919050565b5f6020820190508181035f830152611500816114c7565b9050919050565b7f45717569706d656e7420646f6573206e6f742065786973742e000000000000005f82015250565b5f61153b601983610e8e565b915061154682611507565b602082019050919050565b5f6020820190508181035f8301526115688161152f565b9050919050565b7f45717569706d656e74206973206e6f7420617661696c61626c652e00000000005f82015250565b5f6115a3601b83610e8e565b91506115ae8261156f565b602082019050919050565b5f6020820190508181035f8301526115d081611597565b9050919050565b7f45717569706d656e74206973206e6f74207265717565737465642e00000000005f82015250565b5f61160b601b83610e8e565b9150611616826115d7565b602082019050919050565b5f6020820190508181035f830152611638816115ff565b905091905056fea264697066735822122064143041263d23d4a6e5b666fa2ef69dce8c896b1aa644869fafd2552c46ab4964736f6c634300081e0033",
					"opcodes": "PUSH1 0x80 PUSH1 0x40 MSTORE CALLVALUE DUP1 ISZERO PUSH1 0xE JUMPI PUSH0 PUSH0 REVERT JUMPDEST POP CALLER PUSH0 PUSH0 PUSH2 0x100 EXP DUP2 SLOAD DUP2 PUSH20 0xFFFFFFFFFFFFFFFFFFFFFFFFFFFFFFFFFFFFFFFF MUL NOT AND SWAP1 DUP4 PUSH20 0xFFFFFFFFFFFFFFFFFFFFFFFFFFFFFFFFFFFFFFFF AND MUL OR SWAP1 SSTORE POP PUSH2 0x1675 DUP1 PUSH2 0x5B PUSH0 CODECOPY PUSH0 RETURN INVALID PUSH1 0x80 PUSH1 0x40 MSTORE CALLVALUE DUP1 ISZERO PUSH2 0xF JUMPI PUSH0 PUSH0 REVERT JUMPDEST POP PUSH1 0x4 CALLDATASIZE LT PUSH2 0x86 JUMPI PUSH0 CALLDATALOAD PUSH1 0xE0 SHR DUP1 PUSH4 0x81DD2FA0 GT PUSH2 0x59 JUMPI DUP1 PUSH4 0x81DD2FA0 EQ PUSH2 0xFC JUMPI DUP1 PUSH4 0xA6EFD620 EQ PUSH2 0x130 JUMPI DUP1 PUSH4 0xD7D1BBDB EQ PUSH2 0x164 JUMPI DUP1 PUSH4 0xF851A440 EQ PUSH2 0x180 JUMPI PUSH2 0x86 JUMP JUMPDEST DUP1 PUSH4 0x28512D2B EQ PUSH2 0x8A JUMPI DUP1 PUSH4 0x51DF75FE EQ PUSH2 0xA8 JUMPI DUP1 PUSH4 0x6DB64613 EQ PUSH2 0xC4 JUMPI DUP1 PUSH4 0x757680AA EQ PUSH2 0xE0 JUMPI JUMPDEST PUSH0 PUSH0 REVERT JUMPDEST PUSH2 0x92 PUSH2 0x19E JUMP JUMPDEST PUSH1 0x40 MLOAD PUSH2 0x9F SWAP2 SWAP1 PUSH2 0xC53 JUMP JUMPDEST PUSH1 0x40 MLOAD DUP1 SWAP2 SUB SWAP1 RETURN JUMPDEST PUSH2 0xC2 PUSH1 0x4 DUP1 CALLDATASIZE SUB DUP2 ADD SWAP1 PUSH2 0xBD SWAP2 SWAP1 PUSH2 0xDB9 JUMP JUMPDEST PUSH2 0x1A4 JUMP JUMPDEST STOP JUMPDEST PUSH2 0xDE PUSH1 0x4 DUP1 CALLDATASIZE SUB DUP2 ADD SWAP1 PUSH2 0xD9 SWAP2 SWAP1 PUSH2 0xE59 JUMP JUMPDEST PUSH2 0x39A JUMP JUMPDEST STOP JUMPDEST PUSH2 0xFA PUSH1 0x4 DUP1 CALLDATASIZE SUB DUP2 ADD SWAP1 PUSH2 0xF5 SWAP2 SWAP1 PUSH2 0xE59 JUMP JUMPDEST PUSH2 0x56C JUMP JUMPDEST STOP JUMPDEST PUSH2 0x116 PUSH1 0x4 DUP1 CALLDATASIZE SUB DUP2 ADD SWAP1 PUSH2 0x111 SWAP2 SWAP1 PUSH2 0xE59 JUMP JUMPDEST PUSH2 0x6F2 JUMP JUMPDEST PUSH1 0x40 MLOAD PUSH2 0x127 SWAP6 SWAP5 SWAP4 SWAP3 SWAP2 SWAP1 PUSH2 0xF96 JUMP JUMPDEST PUSH1 0x40 MLOAD DUP1 SWAP2 SUB SWAP1 RETURN JUMPDEST PUSH2 0x14A PUSH1 0x4 DUP1 CALLDATASIZE SUB DUP2 ADD SWAP1 PUSH2 0x145 SWAP2 SWAP1 PUSH2 0xE59 JUMP JUMPDEST PUSH2 0x8FC JUMP JUMPDEST PUSH1 0x40 MLOAD PUSH2 0x15B SWAP6 SWAP5 SWAP4 SWAP3 SWAP2 SWAP1 PUSH2 0xF96 JUMP JUMPDEST PUSH1 0x40 MLOAD DUP1 SWAP2 SUB SWAP1 RETURN JUMPDEST PUSH2 0x17E PUSH1 0x4 DUP1 CALLDATASIZE SUB DUP2 ADD SWAP1 PUSH2 0x179 SWAP2 SWAP1 PUSH2 0xE59 JUMP JUMPDEST PUSH2 0xA66 JUMP JUMPDEST STOP JUMPDEST PUSH2 0x188 PUSH2 0xC17 JUMP JUMPDEST PUSH1 0x40 MLOAD PUSH2 0x195 SWAP2 SWAP1 PUSH2 0xFF5 JUMP JUMPDEST PUSH1 0x40 MLOAD DUP1 SWAP2 SUB SWAP1 RETURN JUMPDEST PUSH1 0x1 SLOAD DUP2 JUMP JUMPDEST PUSH0 PUSH0 SWAP1 SLOAD SWAP1 PUSH2 0x100 EXP SWAP1 DIV PUSH20 0xFFFFFFFFFFFFFFFFFFFFFFFFFFFFFFFFFFFFFFFF AND PUSH20 0xFFFFFFFFFFFFFFFFFFFFFFFFFFFFFFFFFFFFFFFF AND CALLER PUSH20 0xFFFFFFFFFFFFFFFFFFFFFFFFFFFFFFFFFFFFFFFF AND EQ PUSH2 0x232 JUMPI PUSH1 0x40 MLOAD PUSH32 0x8C379A000000000000000000000000000000000000000000000000000000000 DUP2 MSTORE PUSH1 0x4 ADD PUSH2 0x229 SWAP1 PUSH2 0x107E JUMP JUMPDEST PUSH1 0x40 MLOAD DUP1 SWAP2 SUB SWAP1 REVERT JUMPDEST PUSH1 0x1 PUSH0 DUP2 SLOAD DUP1 SWAP3 SWAP2 SWAP1 PUSH2 0x244 SWAP1 PUSH2 0x10C9 JUMP JUMPDEST SWAP2 SWAP1 POP SSTORE POP PUSH1 0x40 MLOAD DUP1 PUSH1 0xA0 ADD PUSH1 0x40 MSTORE DUP1 PUSH1 0x1 SLOAD DUP2 MSTORE PUSH1 0x20 ADD DUP4 DUP2 MSTORE PUSH1 0x20 ADD DUP3 DUP2 MSTORE PUSH1 0x20 ADD PUSH0 PUSH1 0x2 DUP2 GT ISZERO PUSH2 0x27B JUMPI PUSH2 0x27A PUSH2 0xEE4 JUMP JUMPDEST JUMPDEST DUP2 MSTORE PUSH1 0x20 ADD PUSH0 PUSH20 0xFFFFFFFFFFFFFFFFFFFFFFFFFFFFFFFFFFFFFFFF AND DUP2 MSTORE POP PUSH1 0x2 PUSH0 PUSH1 0x1 SLOAD DUP2 MSTORE PUSH1 0x20 ADD SWAP1 DUP2 MSTORE PUSH1 0x20 ADD PUSH0 KECCAK256 PUSH0 DUP3 ADD MLOAD DUP2 PUSH0 ADD SSTORE PUSH1 0x20 DUP3 ADD MLOAD DUP2 PUSH1 0x1 ADD SWAP1 DUP2 PUSH2 0x2CA SWAP2 SWAP1 PUSH2 0x130D JUMP JUMPDEST POP PUSH1 0x40 DUP3 ADD MLOAD DUP2 PUSH1 0x2 ADD SWAP1 DUP2 PUSH2 0x2E0 SWAP2 SWAP1 PUSH2 0x130D JUMP JUMPDEST POP PUSH1 0x60 DUP3 ADD MLOAD DUP2 PUSH1 0x3 ADD PUSH0 PUSH2 0x100 EXP DUP2 SLOAD DUP2 PUSH1 0xFF MUL NOT AND SWAP1 DUP4 PUSH1 0x2 DUP2 GT ISZERO PUSH2 0x30B JUMPI PUSH2 0x30A PUSH2 0xEE4 JUMP JUMPDEST JUMPDEST MUL OR SWAP1 SSTORE POP PUSH1 0x80 DUP3 ADD MLOAD DUP2 PUSH1 0x3 ADD PUSH1 0x1 PUSH2 0x100 EXP DUP2 SLOAD DUP2 PUSH20 0xFFFFFFFFFFFFFFFFFFFFFFFFFFFFFFFFFFFFFFFF MUL NOT AND SWAP1 DUP4 PUSH20 0xFFFFFFFFFFFFFFFFFFFFFFFFFFFFFFFFFFFFFFFF AND MUL OR SWAP1 SSTORE POP SWAP1 POP POP PUSH1 0x1 SLOAD PUSH32 0x1F323F0828EC808225FC2C0A1A8A9C91D0B1CC292286D19BC85DA6F25078A20 DUP4 DUP4 PUSH1 0x40 MLOAD PUSH2 0x38E SWAP3 SWAP2 SWAP1 PUSH2 0x13DC JUMP JUMPDEST PUSH1 0x40 MLOAD DUP1 SWAP2 SUB SWAP1 LOG2 POP POP JUMP JUMPDEST PUSH0 PUSH1 0x2 PUSH0 DUP4 DUP2 MSTORE PUSH1 0x20 ADD SWAP1 DUP2 MSTORE PUSH1 0x20 ADD PUSH0 KECCAK256 SWAP1 POP PUSH1 0x2 DUP1 DUP2 GT ISZERO PUSH2 0x3C1 JUMPI PUSH2 0x3C0 PUSH2 0xEE4 JUMP JUMPDEST JUMPDEST DUP2 PUSH1 0x3 ADD PUSH0 SWAP1 SLOAD SWAP1 PUSH2 0x100 EXP SWAP1 DIV PUSH1 0xFF AND PUSH1 0x2 DUP2 GT ISZERO PUSH2 0x3E4 JUMPI PUSH2 0x3E3 PUSH2 0xEE4 JUMP JUMPDEST JUMPDEST EQ PUSH2 0x424 JUMPI PUSH1 0x40 MLOAD PUSH32 0x8C379A000000000000000000000000000000000000000000000000000000000 DUP2 MSTORE PUSH1 0x4 ADD PUSH2 0x41B SWAP1 PUSH2 0x145B JUMP JUMPDEST PUSH1 0x40 MLOAD DUP1 SWAP2 SUB SWAP1 REVERT JUMPDEST CALLER PUSH20 0xFFFFFFFFFFFFFFFFFFFFFFFFFFFFFFFFFFFFFFFF AND DUP2 PUSH1 0x3 ADD PUSH1 0x1 SWAP1 SLOAD SWAP1 PUSH2 0x100 EXP SWAP1 DIV PUSH20 0xFFFFFFFFFFFFFFFFFFFFFFFFFFFFFFFFFFFFFFFF AND PUSH20 0xFFFFFFFFFFFFFFFFFFFFFFFFFFFFFFFFFFFFFFFF AND EQ PUSH2 0x4B6 JUMPI PUSH1 0x40 MLOAD PUSH32 0x8C379A000000000000000000000000000000000000000000000000000000000 DUP2 MSTORE PUSH1 0x4 ADD PUSH2 0x4AD SWAP1 PUSH2 0x14E9 JUMP JUMPDEST PUSH1 0x40 MLOAD DUP1 SWAP2 SUB SWAP1 REVERT JUMPDEST PUSH0 DUP2 PUSH1 0x3 ADD PUSH0 PUSH2 0x100 EXP DUP2 SLOAD DUP2 PUSH1 0xFF MUL NOT AND SWAP1 DUP4 PUSH1 0x2 DUP2 GT ISZERO PUSH2 0x4DC JUMPI PUSH2 0x4DB PUSH2 0xEE4 JUMP JUMPDEST JUMPDEST MUL OR SWAP1 SSTORE POP PUSH0 DUP2 PUSH1 0x3 ADD PUSH1 0x1 PUSH2 0x100 EXP DUP2 SLOAD DUP2 PUSH20 0xFFFFFFFFFFFFFFFFFFFFFFFFFFFFFFFFFFFFFFFF MUL NOT AND SWAP1 DUP4 PUSH20 0xFFFFFFFFFFFFFFFFFFFFFFFFFFFFFFFFFFFFFFFF AND MUL OR SWAP1 SSTORE POP CALLER PUSH20 0xFFFFFFFFFFFFFFFFFFFFFFFFFFFFFFFFFFFFFFFF AND DUP3 PUSH32 0x5909368B77DDB069C4677A19AB0B404EDAF0BDFD8F85DC752367E1BA1ECA406 PUSH1 0x40 MLOAD PUSH1 0x40 MLOAD DUP1 SWAP2 SUB SWAP1 LOG3 POP POP JUMP JUMPDEST PUSH0 PUSH1 0x2 PUSH0 DUP4 DUP2 MSTORE PUSH1 0x20 ADD SWAP1 DUP2 MSTORE PUSH1 0x20 ADD PUSH0 KECCAK256 SWAP1 POP PUSH0 DUP2 PUSH0 ADD SLOAD SUB PUSH2 0x5C5 JUMPI PUSH1 0x40 MLOAD PUSH32 0x8C379A000000000000000000000000000000000000000000000000000000000 DUP2 MSTORE PUSH1 0x4 ADD PUSH2 0x5BC SWAP1 PUSH2 0x1551 JUMP JUMPDEST PUSH1 0x40 MLOAD DUP1 SWAP2 SUB SWAP1 REVERT JUMPDEST PUSH0 PUSH1 0x2 DUP2 GT ISZERO PUSH2 0x5D8 JUMPI PUSH2 0x5D7 PUSH2 0xEE4 JUMP JUMPDEST JUMPDEST DUP2 PUSH1 0x3 ADD PUSH0 SWAP1 SLOAD SWAP1 PUSH2 0x100 EXP SWAP1 DIV PUSH1 0xFF AND PUSH1 0x2 DUP2 GT ISZERO PUSH2 0x5FB JUMPI PUSH2 0x5FA PUSH2 0xEE4 JUMP JUMPDEST JUMPDEST EQ PUSH2 0x63B JUMPI PUSH1 0x40 MLOAD PUSH32 0x8C379A000000000000000000000000000000000000000000000000000000000 DUP2 MSTORE PUSH1 0x4 ADD PUSH2 0x632 SWAP1 PUSH2 0x15B9 JUMP JUMPDEST PUSH1 0x40 MLOAD DUP1 SWAP2 SUB SWAP1 REVERT JUMPDEST PUSH1 0x1 DUP2 PUSH1 0x3 ADD PUSH0 PUSH2 0x100 EXP DUP2 SLOAD DUP2 PUSH1 0xFF MUL NOT AND SWAP1 DUP4 PUSH1 0x2 DUP2 GT ISZERO PUSH2 0x662 JUMPI PUSH2 0x661 PUSH2 0xEE4 JUMP JUMPDEST JUMPDEST MUL OR SWAP1 SSTORE POP CALLER DUP2 PUSH1 0x3 ADD PUSH1 0x1 PUSH2 0x100 EXP DUP2 SLOAD DUP2 PUSH20 0xFFFFFFFFFFFFFFFFFFFFFFFFFFFFFFFFFFFFFFFF MUL NOT AND SWAP1 DUP4 PUSH20 0xFFFFFFFFFFFFFFFFFFFFFFFFFFFFFFFFFFFFFFFF AND MUL OR SWAP1 SSTORE POP CALLER PUSH20 0xFFFFFFFFFFFFFFFFFFFFFFFFFFFFFFFFFFFFFFFF AND DUP3 PUSH32 0xFD0E835657522C860741007BBA61D82E5955ECED970886741D4EF79FC9E3B6CB PUSH1 0x40 MLOAD PUSH1 0x40 MLOAD DUP1 SWAP2 SUB SWAP1 LOG3 POP POP JUMP JUMPDEST PUSH0 PUSH1 0x60 DUP1 PUSH0 PUSH0 PUSH0 PUSH1 0x2 PUSH0 DUP9 DUP2 MSTORE PUSH1 0x20 ADD SWAP1 DUP2 MSTORE PUSH1 0x20 ADD PUSH0 KECCAK256 PUSH1 0x40 MLOAD DUP1 PUSH1 0xA0 ADD PUSH1 0x40 MSTORE SWAP1 DUP2 PUSH0 DUP3 ADD SLOAD DUP2 MSTORE PUSH1 0x20 ADD PUSH1 0x1 DUP3 ADD DUP1 SLOAD PUSH2 0x72E SWAP1 PUSH2 0x113D JUMP JUMPDEST DUP1 PUSH1 0x1F ADD PUSH1 0x20 DUP1 SWAP2 DIV MUL PUSH1 0x20 ADD PUSH1 0x40 MLOAD SWAP1 DUP2 ADD PUSH1 0x40 MSTORE DUP1 SWAP3 SWAP2 SWAP1 DUP2 DUP2 MSTORE PUSH1 0x20 ADD DUP3 DUP1 SLOAD PUSH2 0x75A SWAP1 PUSH2 0x113D JUMP JUMPDEST DUP1 ISZERO PUSH2 0x7A5 JUMPI DUP1 PUSH1 0x1F LT PUSH2 0x77C JUMPI PUSH2 0x100 DUP1 DUP4 SLOAD DIV MUL DUP4 MSTORE SWAP2 PUSH1 0x20 ADD SWAP2 PUSH2 0x7A5 JUMP JUMPDEST DUP3 ADD SWAP2 SWAP1 PUSH0 MSTORE PUSH1 0x20 PUSH0 KECCAK256 SWAP1 JUMPDEST DUP2 SLOAD DUP2 MSTORE SWAP1 PUSH1 0x1 ADD SWAP1 PUSH1 0x20 ADD DUP1 DUP4 GT PUSH2 0x788 JUMPI DUP3 SWAP1 SUB PUSH1 0x1F AND DUP3 ADD SWAP2 JUMPDEST POP POP POP POP POP DUP2 MSTORE PUSH1 0x20 ADD PUSH1 0x2 DUP3 ADD DUP1 SLOAD PUSH2 0x7BE SWAP1 PUSH2 0x113D JUMP JUMPDEST DUP1 PUSH1 0x1F ADD PUSH1 0x20 DUP1 SWAP2 DIV MUL PUSH1 0x20 ADD PUSH1 0x40 MLOAD SWAP1 DUP2 ADD PUSH1 0x40 MSTORE DUP1 SWAP3 SWAP2 SWAP1 DUP2 DUP2 MSTORE PUSH1 0x20 ADD DUP3 DUP1 SLOAD PUSH2 0x7EA SWAP1 PUSH2 0x113D JUMP JUMPDEST DUP1 ISZERO PUSH2 0x835 JUMPI DUP1 PUSH1 0x1F LT PUSH2 0x80C JUMPI PUSH2 0x100 DUP1 DUP4 SLOAD DIV MUL DUP4 MSTORE SWAP2 PUSH1 0x20 ADD SWAP2 PUSH2 0x835 JUMP JUMPDEST DUP3 ADD SWAP2 SWAP1 PUSH0 MSTORE PUSH1 0x20 PUSH0 KECCAK256 SWAP1 JUMPDEST DUP2 SLOAD DUP2 MSTORE SWAP1 PUSH1 0x1 ADD SWAP1 PUSH1 0x20 ADD DUP1 DUP4 GT PUSH2 0x818 JUMPI DUP3 SWAP1 SUB PUSH1 0x1F AND DUP3 ADD SWAP2 JUMPDEST POP POP POP POP POP DUP2 MSTORE PUSH1 0x20 ADD PUSH1 0x3 DUP3 ADD PUSH0 SWAP1 SLOAD SWAP1 PUSH2 0x100 EXP SWAP1 DIV PUSH1 0xFF AND PUSH1 0x2 DUP2 GT ISZERO PUSH2 0x862 JUMPI PUSH2 0x861 PUSH2 0xEE4 JUMP JUMPDEST JUMPDEST PUSH1 0x2 DUP2 GT ISZERO PUSH2 0x874 JUMPI PUSH2 0x873 PUSH2 0xEE4 JUMP JUMPDEST JUMPDEST DUP2 MSTORE PUSH1 0x20 ADD PUSH1 0x3 DUP3 ADD PUSH1 0x1 SWAP1 SLOAD SWAP1 PUSH2 0x100 EXP SWAP1 DIV PUSH20 0xFFFFFFFFFFFFFFFFFFFFFFFFFFFFFFFFFFFFFFFF AND PUSH20 0xFFFFFFFFFFFFFFFFFFFFFFFFFFFFFFFFFFFFFFFF AND PUSH20 0xFFFFFFFFFFFFFFFFFFFFFFFFFFFFFFFFFFFFFFFF AND DUP2 MSTORE POP POP SWAP1 POP DUP1 PUSH0 ADD MLOAD DUP2 PUSH1 0x20 ADD MLOAD DUP3 PUSH1 0x40 ADD MLOAD DUP4 PUSH1 0x60 ADD MLOAD DUP5 PUSH1 0x80 ADD MLOAD SWAP6 POP SWAP6 POP SWAP6 POP SWAP6 POP SWAP6 POP POP SWAP2 SWAP4 SWAP6 SWAP1 SWAP3 SWAP5 POP JUMP JUMPDEST PUSH1 0x2 PUSH1 0x20 MSTORE DUP1 PUSH0 MSTORE PUSH1 0x40 PUSH0 KECCAK256 PUSH0 SWAP2 POP SWAP1 POP DUP1 PUSH0 ADD SLOAD SWAP1 DUP1 PUSH1 0x1 ADD DUP1 SLOAD PUSH2 0x921 SWAP1 PUSH2 0x113D JUMP JUMPDEST DUP1 PUSH1 0x1F ADD PUSH1 0x20 DUP1 SWAP2 DIV MUL PUSH1 0x20 ADD PUSH1 0x40 MLOAD SWAP1 DUP2 ADD PUSH1 0x40 MSTORE DUP1 SWAP3 SWAP2 SWAP1 DUP2 DUP2 MSTORE PUSH1 0x20 ADD DUP3 DUP1 SLOAD PUSH2 0x94D SWAP1 PUSH2 0x113D JUMP JUMPDEST DUP1 ISZERO PUSH2 0x998 JUMPI DUP1 PUSH1 0x1F LT PUSH2 0x96F JUMPI PUSH2 0x100 DUP1 DUP4 SLOAD DIV MUL DUP4 MSTORE SWAP2 PUSH1 0x20 ADD SWAP2 PUSH2 0x998 JUMP JUMPDEST DUP3 ADD SWAP2 SWAP1 PUSH0 MSTORE PUSH1 0x20 PUSH0 KECCAK256 SWAP1 JUMPDEST DUP2 SLOAD DUP2 MSTORE SWAP1 PUSH1 0x1 ADD SWAP1 PUSH1 0x20 ADD DUP1 DUP4 GT PUSH2 0x97B JUMPI DUP3 SWAP1 SUB PUSH1 0x1F AND DUP3 ADD SWAP2 JUMPDEST POP POP POP POP POP SWAP1 DUP1 PUSH1 0x2 ADD DUP1 SLOAD PUSH2 0x9AD SWAP1 PUSH2 0x113D JUMP JUMPDEST DUP1 PUSH1 0x1F ADD PUSH1 0x20 DUP1 SWAP2 DIV MUL PUSH1 0x20 ADD PUSH1 0x40 MLOAD SWAP1 DUP2 ADD PUSH1 0x40 MSTORE DUP1 SWAP3 SWAP2 SWAP1 DUP2 DUP2 MSTORE PUSH1 0x20 ADD DUP3 DUP1 SLOAD PUSH2 0x9D9 SWAP1 PUSH2 0x113D JUMP JUMPDEST DUP1 ISZERO PUSH2 0xA24 JUMPI DUP1 PUSH1 0x1F LT PUSH2 0x9FB JUMPI PUSH2 0x100 DUP1 DUP4 SLOAD DIV MUL DUP4 MSTORE SWAP2 PUSH1 0x20 ADD SWAP2 PUSH2 0xA24 JUMP JUMPDEST DUP3 ADD SWAP2 SWAP1 PUSH0 MSTORE PUSH1 0x20 PUSH0 KECCAK256 SWAP1 JUMPDEST DUP2 SLOAD DUP2 MSTORE SWAP1 PUSH1 0x1 ADD SWAP1 PUSH1 0x20 ADD DUP1 DUP4 GT PUSH2 0xA07 JUMPI DUP3 SWAP1 SUB PUSH1 0x1F AND DUP3 ADD SWAP2 JUMPDEST POP POP POP POP POP SWAP1 DUP1 PUSH1 0x3 ADD PUSH0 SWAP1 SLOAD SWAP1 PUSH2 0x100 EXP SWAP1 DIV PUSH1 0xFF AND SWAP1 DUP1 PUSH1 0x3 ADD PUSH1 0x1 SWAP1 SLOAD SWAP1 PUSH2 0x100 EXP SWAP1 DIV PUSH20 0xFFFFFFFFFFFFFFFFFFFFFFFFFFFFFFFFFFFFFFFF AND SWAP1 POP DUP6 JUMP JUMPDEST PUSH0 PUSH0 SWAP1 SLOAD SWAP1 PUSH2 0x100 EXP SWAP1 DIV PUSH20 0xFFFFFFFFFFFFFFFFFFFFFFFFFFFFFFFFFFFFFFFF AND PUSH20 0xFFFFFFFFFFFFFFFFFFFFFFFFFFFFFFFFFFFFFFFF AND CALLER PUSH20 0xFFFFFFFFFFFFFFFFFFFFFFFFFFFFFFFFFFFFFFFF AND EQ PUSH2 0xAF4 JUMPI PUSH1 0x40 MLOAD PUSH32 0x8C379A000000000000000000000000000000000000000000000000000000000 DUP2 MSTORE PUSH1 0x4 ADD PUSH2 0xAEB SWAP1 PUSH2 0x107E JUMP JUMPDEST PUSH1 0x40 MLOAD DUP1 SWAP2 SUB SWAP1 REVERT JUMPDEST PUSH0 PUSH1 0x2 PUSH0 DUP4 DUP2 MSTORE PUSH1 0x20 ADD SWAP1 DUP2 MSTORE PUSH1 0x20 ADD PUSH0 KECCAK256 SWAP1 POP PUSH1 0x1 PUSH1 0x2 DUP2 GT ISZERO PUSH2 0xB1C JUMPI PUSH2 0xB1B PUSH2 0xEE4 JUMP JUMPDEST JUMPDEST DUP2 PUSH1 0x3 ADD PUSH0 SWAP1 SLOAD SWAP1 PUSH2 0x100 EXP SWAP1 DIV PUSH1 0xFF AND PUSH1 0x2 DUP2 GT ISZERO PUSH2 0xB3F JUMPI PUSH2 0xB3E PUSH2 0xEE4 JUMP JUMPDEST JUMPDEST EQ PUSH2 0xB7F JUMPI PUSH1 0x40 MLOAD PUSH32 0x8C379A000000000000000000000000000000000000000000000000000000000 DUP2 MSTORE PUSH1 0x4 ADD PUSH2 0xB76 SWAP1 PUSH2 0x1621 JUMP JUMPDEST PUSH1 0x40 MLOAD DUP1 SWAP2 SUB SWAP1 REVERT JUMPDEST PUSH1 0x2 DUP2 PUSH1 0x3 ADD PUSH0 PUSH2 0x100 EXP DUP2 SLOAD DUP2 PUSH1 0xFF MUL NOT AND SWAP1 DUP4 PUSH1 0x2 DUP2 GT ISZERO PUSH2 0xBA6 JUMPI PUSH2 0xBA5 PUSH2 0xEE4 JUMP JUMPDEST JUMPDEST MUL OR SWAP1 SSTORE POP DUP1 PUSH1 0x3 ADD PUSH1 0x1 SWAP1 SLOAD SWAP1 PUSH2 0x100 EXP SWAP1 DIV PUSH20 0xFFFFFFFFFFFFFFFFFFFFFFFFFFFFFFFFFFFFFFFF AND PUSH20 0xFFFFFFFFFFFFFFFFFFFFFFFFFFFFFFFFFFFFFFFF AND DUP3 PUSH32 0xF3DC904660A0EA05ABA8DFA1E21FBC4FB2914BE2A3029DA7B0FDD3E5EEE20DDB PUSH1 0x40 MLOAD PUSH1 0x40 MLOAD DUP1 SWAP2 SUB SWAP1 LOG3 POP POP JUMP JUMPDEST PUSH0 PUSH0 SWAP1 SLOAD SWAP1 PUSH2 0x100 EXP SWAP1 DIV PUSH20 0xFFFFFFFFFFFFFFFFFFFFFFFFFFFFFFFFFFFFFFFF AND DUP2 JUMP JUMPDEST PUSH0 DUP2 SWAP1 POP SWAP2 SWAP1 POP JUMP JUMPDEST PUSH2 0xC4D DUP2 PUSH2 0xC3B JUMP JUMPDEST DUP3 MSTORE POP POP JUMP JUMPDEST PUSH0 PUSH1 0x20 DUP3 ADD SWAP1 POP PUSH2 0xC66 PUSH0 DUP4 ADD DUP5 PUSH2 0xC44 JUMP JUMPDEST SWAP3 SWAP2 POP POP JUMP JUMPDEST PUSH0 PUSH1 0x40 MLOAD SWAP1 POP SWAP1 JUMP JUMPDEST PUSH0 PUSH0 REVERT JUMPDEST PUSH0 PUSH0 REVERT JUMPDEST PUSH0 PUSH0 REVERT JUMPDEST PUSH0 PUSH0 REVERT JUMPDEST PUSH0 PUSH1 0x1F NOT PUSH1 0x1F DUP4 ADD AND SWAP1 POP SWAP2 SWAP1 POP JUMP JUMPDEST PUSH32 0x4E487B7100000000000000000000000000000000000000000000000000000000 PUSH0 MSTORE PUSH1 0x41 PUSH1 0x4 MSTORE PUSH1 0x24 PUSH0 REVERT JUMPDEST PUSH2 0xCCB DUP3 PUSH2 0xC85 JUMP JUMPDEST DUP2 ADD DUP2 DUP2 LT PUSH8 0xFFFFFFFFFFFFFFFF DUP3 GT OR ISZERO PUSH2 0xCEA JUMPI PUSH2 0xCE9 PUSH2 0xC95 JUMP JUMPDEST JUMPDEST DUP1 PUSH1 0x40 MSTORE POP POP POP JUMP JUMPDEST PUSH0 PUSH2 0xCFC PUSH2 0xC6C JUMP JUMPDEST SWAP1 POP PUSH2 0xD08 DUP3 DUP3 PUSH2 0xCC2 JUMP JUMPDEST SWAP2 SWAP1 POP JUMP JUMPDEST PUSH0 PUSH8 0xFFFFFFFFFFFFFFFF DUP3 GT ISZERO PUSH2 0xD27 JUMPI PUSH2 0xD26 PUSH2 0xC95 JUMP JUMPDEST JUMPDEST PUSH2 0xD30 DUP3 PUSH2 0xC85 JUMP JUMPDEST SWAP1 POP PUSH1 0x20 DUP2 ADD SWAP1 POP SWAP2 SWAP1 POP JUMP JUMPDEST DUP3 DUP2 DUP4 CALLDATACOPY PUSH0 DUP4 DUP4 ADD MSTORE POP POP POP JUMP JUMPDEST PUSH0 PUSH2 0xD5D PUSH2 0xD58 DUP5 PUSH2 0xD0D JUMP JUMPDEST PUSH2 0xCF3 JUMP JUMPDEST SWAP1 POP DUP3 DUP2 MSTORE PUSH1 0x20 DUP2 ADD DUP5 DUP5 DUP5 ADD GT ISZERO PUSH2 0xD79 JUMPI PUSH2 0xD78 PUSH2 0xC81 JUMP JUMPDEST JUMPDEST PUSH2 0xD84 DUP5 DUP3 DUP6 PUSH2 0xD3D JUMP JUMPDEST POP SWAP4 SWAP3 POP POP POP JUMP JUMPDEST PUSH0 DUP3 PUSH1 0x1F DUP4 ADD SLT PUSH2 0xDA0 JUMPI PUSH2 0xD9F PUSH2 0xC7D JUMP JUMPDEST JUMPDEST DUP2 CALLDATALOAD PUSH2 0xDB0 DUP5 DUP3 PUSH1 0x20 DUP7 ADD PUSH2 0xD4B JUMP JUMPDEST SWAP2 POP POP SWAP3 SWAP2 POP POP JUMP JUMPDEST PUSH0 PUSH0 PUSH1 0x40 DUP4 DUP6 SUB SLT ISZERO PUSH2 0xDCF JUMPI PUSH2 0xDCE PUSH2 0xC75 JUMP JUMPDEST JUMPDEST PUSH0 DUP4 ADD CALLDATALOAD PUSH8 0xFFFFFFFFFFFFFFFF DUP2 GT ISZERO PUSH2 0xDEC JUMPI PUSH2 0xDEB PUSH2 0xC79 JUMP JUMPDEST JUMPDEST PUSH2 0xDF8 DUP6 DUP3 DUP7 ADD PUSH2 0xD8C JUMP JUMPDEST SWAP3 POP POP PUSH1 0x20 DUP4 ADD CALLDATALOAD PUSH8 0xFFFFFFFFFFFFFFFF DUP2 GT ISZERO PUSH2 0xE19 JUMPI PUSH2 0xE18 PUSH2 0xC79 JUMP JUMPDEST JUMPDEST PUSH2 0xE25 DUP6 DUP3 DUP7 ADD PUSH2 0xD8C JUMP JUMPDEST SWAP2 POP POP SWAP3 POP SWAP3 SWAP1 POP JUMP JUMPDEST PUSH2 0xE38 DUP2 PUSH2 0xC3B JUMP JUMPDEST DUP2 EQ PUSH2 0xE42 JUMPI PUSH0 PUSH0 REVERT JUMPDEST POP JUMP JUMPDEST PUSH0 DUP2 CALLDATALOAD SWAP1 POP PUSH2 0xE53 DUP2 PUSH2 0xE2F JUMP JUMPDEST SWAP3 SWAP2 POP POP JUMP JUMPDEST PUSH0 PUSH1 0x20 DUP3 DUP5 SUB SLT ISZERO PUSH2 0xE6E JUMPI PUSH2 0xE6D PUSH2 0xC75 JUMP JUMPDEST JUMPDEST PUSH0 PUSH2 0xE7B DUP5 DUP3 DUP6 ADD PUSH2 0xE45 JUMP JUMPDEST SWAP2 POP POP SWAP3 SWAP2 POP POP JUMP JUMPDEST PUSH0 DUP2 MLOAD SWAP1 POP SWAP2 SWAP1 POP JUMP JUMPDEST PUSH0 DUP3 DUP3 MSTORE PUSH1 0x20 DUP3 ADD SWAP1 POP SWAP3 SWAP2 POP POP JUMP JUMPDEST DUP3 DUP2 DUP4 MCOPY PUSH0 DUP4 DUP4 ADD MSTORE POP POP POP JUMP JUMPDEST PUSH0 PUSH2 0xEB6 DUP3 PUSH2 0xE84 JUMP JUMPDEST PUSH2 0xEC0 DUP2 DUP6 PUSH2 0xE8E JUMP JUMPDEST SWAP4 POP PUSH2 0xED0 DUP2 DUP6 PUSH1 0x20 DUP7 ADD PUSH2 0xE9E JUMP JUMPDEST PUSH2 0xED9 DUP2 PUSH2 0xC85 JUMP JUMPDEST DUP5 ADD SWAP2 POP POP SWAP3 SWAP2 POP POP JUMP JUMPDEST PUSH32 0x4E487B7100000000000000000000000000000000000000000000000000000000 PUSH0 MSTORE PUSH1 0x21 PUSH1 0x4 MSTORE PUSH1 0x24 PUSH0 REVERT JUMPDEST PUSH1 0x3 DUP2 LT PUSH2 0xF22 JUMPI PUSH2 0xF21 PUSH2 0xEE4 JUMP JUMPDEST JUMPDEST POP JUMP JUMPDEST PUSH0 DUP2 SWAP1 POP PUSH2 0xF32 DUP3 PUSH2 0xF11 JUMP JUMPDEST SWAP2 SWAP1 POP JUMP JUMPDEST PUSH0 PUSH2 0xF41 DUP3 PUSH2 0xF25 JUMP JUMPDEST SWAP1 POP SWAP2 SWAP1 POP JUMP JUMPDEST PUSH2 0xF51 DUP2 PUSH2 0xF37 JUMP JUMPDEST DUP3 MSTORE POP POP JUMP JUMPDEST PUSH0 PUSH20 0xFFFFFFFFFFFFFFFFFFFFFFFFFFFFFFFFFFFFFFFF DUP3 AND SWAP1 POP SWAP2 SWAP1 POP JUMP JUMPDEST PUSH0 PUSH2 0xF80 DUP3 PUSH2 0xF57 JUMP JUMPDEST SWAP1 POP SWAP2 SWAP1 POP JUMP JUMPDEST PUSH2 0xF90 DUP2 PUSH2 0xF76 JUMP JUMPDEST DUP3 MSTORE POP POP JUMP JUMPDEST PUSH0 PUSH1 0xA0 DUP3 ADD SWAP1 POP PUSH2 0xFA9 PUSH0 DUP4 ADD DUP9 PUSH2 0xC44 JUMP JUMPDEST DUP2 DUP2 SUB PUSH1 0x20 DUP4 ADD MSTORE PUSH2 0xFBB DUP2 DUP8 PUSH2 0xEAC JUMP JUMPDEST SWAP1 POP DUP2 DUP2 SUB PUSH1 0x40 DUP4 ADD MSTORE PUSH2 0xFCF DUP2 DUP7 PUSH2 0xEAC JUMP JUMPDEST SWAP1 POP PUSH2 0xFDE PUSH1 0x60 DUP4 ADD DUP6 PUSH2 0xF48 JUMP JUMPDEST PUSH2 0xFEB PUSH1 0x80 DUP4 ADD DUP5 PUSH2 0xF87 JUMP JUMPDEST SWAP7 SWAP6 POP POP POP POP POP POP JUMP JUMPDEST PUSH0 PUSH1 0x20 DUP3 ADD SWAP1 POP PUSH2 0x1008 PUSH0 DUP4 ADD DUP5 PUSH2 0xF87 JUMP JUMPDEST SWAP3 SWAP2 POP POP JUMP JUMPDEST PUSH32 0x4F6E6C792061646D696E2063616E20706572666F726D20746869732061637469 PUSH0 DUP3 ADD MSTORE PUSH32 0x6F6E2E0000000000000000000000000000000000000000000000000000000000 PUSH1 0x20 DUP3 ADD MSTORE POP JUMP JUMPDEST PUSH0 PUSH2 0x1068 PUSH1 0x23 DUP4 PUSH2 0xE8E JUMP JUMPDEST SWAP2 POP PUSH2 0x1073 DUP3 PUSH2 0x100E JUMP JUMPDEST PUSH1 0x40 DUP3 ADD SWAP1 POP SWAP2 SWAP1 POP JUMP JUMPDEST PUSH0 PUSH1 0x20 DUP3 ADD SWAP1 POP DUP2 DUP2 SUB PUSH0 DUP4 ADD MSTORE PUSH2 0x1095 DUP2 PUSH2 0x105C JUMP JUMPDEST SWAP1 POP SWAP2 SWAP1 POP JUMP JUMPDEST PUSH32 0x4E487B7100000000000000000000000000000000000000000000000000000000 PUSH0 MSTORE PUSH1 0x11 PUSH1 0x4 MSTORE PUSH1 0x24 PUSH0 REVERT JUMPDEST PUSH0 PUSH2 0x10D3 DUP3 PUSH2 0xC3B JUMP JUMPDEST SWAP2 POP PUSH32 0xFFFFFFFFFFFFFFFFFFFFFFFFFFFFFFFFFFFFFFFFFFFFFFFFFFFFFFFFFFFFFFFF DUP3 SUB PUSH2 0x1105 JUMPI PUSH2 0x1104 PUSH2 0x109C JUMP JUMPDEST JUMPDEST PUSH1 0x1 DUP3 ADD SWAP1 POP SWAP2 SWAP1 POP JUMP JUMPDEST PUSH32 0x4E487B7100000000000000000000000000000000000000000000000000000000 PUSH0 MSTORE PUSH1 0x22 PUSH1 0x4 MSTORE PUSH1 0x24 PUSH0 REVERT JUMPDEST PUSH0 PUSH1 0x2 DUP3 DIV SWAP1 POP PUSH1 0x1 DUP3 AND DUP1 PUSH2 0x1154 JUMPI PUSH1 0x7F DUP3 AND SWAP2 POP JUMPDEST PUSH1 0x20 DUP3 LT DUP2 SUB PUSH2 0x1167 JUMPI PUSH2 0x1166 PUSH2 0x1110 JUMP JUMPDEST JUMPDEST POP SWAP2 SWAP1 POP JUMP JUMPDEST PUSH0 DUP2 SWAP1 POP DUP2 PUSH0 MSTORE PUSH1 0x20 PUSH0 KECCAK256 SWAP1 POP SWAP2 SWAP1 POP JUMP JUMPDEST PUSH0 PUSH1 0x20 PUSH1 0x1F DUP4 ADD DIV SWAP1 POP SWAP2 SWAP1 POP JUMP JUMPDEST PUSH0 DUP3 DUP3 SHL SWAP1 POP SWAP3 SWAP2 POP POP JUMP JUMPDEST PUSH0 PUSH1 0x8 DUP4 MUL PUSH2 0x11C9 PUSH32 0xFFFFFFFFFFFFFFFFFFFFFFFFFFFFFFFFFFFFFFFFFFFFFFFFFFFFFFFFFFFFFFFF DUP3 PUSH2 0x118E JUMP JUMPDEST PUSH2 0x11D3 DUP7 DUP4 PUSH2 0x118E JUMP JUMPDEST SWAP6 POP DUP1 NOT DUP5 AND SWAP4 POP DUP1 DUP7 AND DUP5 OR SWAP3 POP POP POP SWAP4 SWAP3 POP POP POP JUMP JUMPDEST PUSH0 DUP2 SWAP1 POP SWAP2 SWAP1 POP JUMP JUMPDEST PUSH0 PUSH2 0x120E PUSH2 0x1209 PUSH2 0x1204 DUP5 PUSH2 0xC3B JUMP JUMPDEST PUSH2 0x11EB JUMP JUMPDEST PUSH2 0xC3B JUMP JUMPDEST SWAP1 POP SWAP2 SWAP1 POP JUMP JUMPDEST PUSH0 DUP2 SWAP1 POP SWAP2 SWAP1 POP JUMP JUMPDEST PUSH2 0x1227 DUP4 PUSH2 0x11F4 JUMP JUMPDEST PUSH2 0x123B PUSH2 0x1233 DUP3 PUSH2 0x1215 JUMP JUMPDEST DUP5 DUP5 SLOAD PUSH2 0x119A JUMP JUMPDEST DUP3 SSTORE POP POP POP POP JUMP JUMPDEST PUSH0 PUSH0 SWAP1 POP SWAP1 JUMP JUMPDEST PUSH2 0x1252 PUSH2 0x1243 JUMP JUMPDEST PUSH2 0x125D DUP2 DUP5 DUP5 PUSH2 0x121E JUMP JUMPDEST POP POP POP JUMP JUMPDEST JUMPDEST DUP2 DUP2 LT ISZERO PUSH2 0x1280 JUMPI PUSH2 0x1275 PUSH0 DUP3 PUSH2 0x124A JUMP JUMPDEST PUSH1 0x1 DUP2 ADD SWAP1 POP PUSH2 0x1263 JUMP JUMPDEST POP POP JUMP JUMPDEST PUSH1 0x1F DUP3 GT ISZERO PUSH2 0x12C5 JUMPI PUSH2 0x1296 DUP2 PUSH2 0x116D JUMP JUMPDEST PUSH2 0x129F DUP5 PUSH2 0x117F JUMP JUMPDEST DUP2 ADD PUSH1 0x20 DUP6 LT ISZERO PUSH2 0x12AE JUMPI DUP2 SWAP1 POP JUMPDEST PUSH2 0x12C2 PUSH2 0x12BA DUP6 PUSH2 0x117F JUMP JUMPDEST DUP4 ADD DUP3 PUSH2 0x1262 JUMP JUMPDEST POP POP JUMPDEST POP POP POP JUMP JUMPDEST PUSH0 DUP3 DUP3 SHR SWAP1 POP SWAP3 SWAP2 POP POP JUMP JUMPDEST PUSH0 PUSH2 0x12E5 PUSH0 NOT DUP5 PUSH1 0x8 MUL PUSH2 0x12CA JUMP JUMPDEST NOT DUP1 DUP4 AND SWAP2 POP POP SWAP3 SWAP2 POP POP JUMP JUMPDEST PUSH0 PUSH2 0x12FD DUP4 DUP4 PUSH2 0x12D6 JUMP JUMPDEST SWAP2 POP DUP3 PUSH1 0x2 MUL DUP3 OR SWAP1 POP SWAP3 SWAP2 POP POP JUMP JUMPDEST PUSH2 0x1316 DUP3 PUSH2 0xE84 JUMP JUMPDEST PUSH8 0xFFFFFFFFFFFFFFFF DUP2 GT ISZERO PUSH2 0x132F JUMPI PUSH2 0x132E PUSH2 0xC95 JUMP JUMPDEST JUMPDEST PUSH2 0x1339 DUP3 SLOAD PUSH2 0x113D JUMP JUMPDEST PUSH2 0x1344 DUP3 DUP3 DUP6 PUSH2 0x1284 JUMP JUMPDEST PUSH0 PUSH1 0x20 SWAP1 POP PUSH1 0x1F DUP4 GT PUSH1 0x1 DUP2 EQ PUSH2 0x1375 JUMPI PUSH0 DUP5 ISZERO PUSH2 0x1363 JUMPI DUP3 DUP8 ADD MLOAD SWAP1 POP JUMPDEST PUSH2 0x136D DUP6 DUP3 PUSH2 0x12F2 JUMP JUMPDEST DUP7 SSTORE POP PUSH2 0x13D4 JUMP JUMPDEST PUSH1 0x1F NOT DUP5 AND PUSH2 0x1383 DUP7 PUSH2 0x116D JUMP JUMPDEST PUSH0 JUMPDEST DUP3 DUP2 LT ISZERO PUSH2 0x13AA JUMPI DUP5 DUP10 ADD MLOAD DUP3 SSTORE PUSH1 0x1 DUP3 ADD SWAP2 POP PUSH1 0x20 DUP6 ADD SWAP5 POP PUSH1 0x20 DUP2 ADD SWAP1 POP PUSH2 0x1385 JUMP JUMPDEST DUP7 DUP4 LT ISZERO PUSH2 0x13C7 JUMPI DUP5 DUP10 ADD MLOAD PUSH2 0x13C3 PUSH1 0x1F DUP10 AND DUP3 PUSH2 0x12D6 JUMP JUMPDEST DUP4 SSTORE POP JUMPDEST PUSH1 0x1 PUSH1 0x2 DUP9 MUL ADD DUP9 SSTORE POP POP POP JUMPDEST POP POP POP POP POP POP JUMP JUMPDEST PUSH0 PUSH1 0x40 DUP3 ADD SWAP1 POP DUP2 DUP2 SUB PUSH0 DUP4 ADD MSTORE PUSH2 0x13F4 DUP2 DUP6 PUSH2 0xEAC JUMP JUMPDEST SWAP1 POP DUP2 DUP2 SUB PUSH1 0x20 DUP4 ADD MSTORE PUSH2 0x1408 DUP2 DUP5 PUSH2 0xEAC JUMP JUMPDEST SWAP1 POP SWAP4 SWAP3 POP POP POP JUMP JUMPDEST PUSH32 0x45717569706D656E74206973206E6F7420626F72726F7765642E000000000000 PUSH0 DUP3 ADD MSTORE POP JUMP JUMPDEST PUSH0 PUSH2 0x1445 PUSH1 0x1A DUP4 PUSH2 0xE8E JUMP JUMPDEST SWAP2 POP PUSH2 0x1450 DUP3 PUSH2 0x1411 JUMP JUMPDEST PUSH1 0x20 DUP3 ADD SWAP1 POP SWAP2 SWAP1 POP JUMP JUMPDEST PUSH0 PUSH1 0x20 DUP3 ADD SWAP1 POP DUP2 DUP2 SUB PUSH0 DUP4 ADD MSTORE PUSH2 0x1472 DUP2 PUSH2 0x1439 JUMP JUMPDEST SWAP1 POP SWAP2 SWAP1 POP JUMP JUMPDEST PUSH32 0x4F6E6C7920626F72726F7765722063616E2072657475726E2065717569706D65 PUSH0 DUP3 ADD MSTORE PUSH32 0x6E742E0000000000000000000000000000000000000000000000000000000000 PUSH1 0x20 DUP3 ADD MSTORE POP JUMP JUMPDEST PUSH0 PUSH2 0x14D3 PUSH1 0x23 DUP4 PUSH2 0xE8E JUMP JUMPDEST SWAP2 POP PUSH2 0x14DE DUP3 PUSH2 0x1479 JUMP JUMPDEST PUSH1 0x40 DUP3 ADD SWAP1 POP SWAP2 SWAP1 POP JUMP JUMPDEST PUSH0 PUSH1 0x20 DUP3 ADD SWAP1 POP DUP2 DUP2 SUB PUSH0 DUP4 ADD MSTORE PUSH2 0x1500 DUP2 PUSH2 0x14C7 JUMP JUMPDEST SWAP1 POP SWAP2 SWAP1 POP JUMP JUMPDEST PUSH32 0x45717569706D656E7420646F6573206E6F742065786973742E00000000000000 PUSH0 DUP3 ADD MSTORE POP JUMP JUMPDEST PUSH0 PUSH2 0x153B PUSH1 0x19 DUP4 PUSH2 0xE8E JUMP JUMPDEST SWAP2 POP PUSH2 0x1546 DUP3 PUSH2 0x1507 JUMP JUMPDEST PUSH1 0x20 DUP3 ADD SWAP1 POP SWAP2 SWAP1 POP JUMP JUMPDEST PUSH0 PUSH1 0x20 DUP3 ADD SWAP1 POP DUP2 DUP2 SUB PUSH0 DUP4 ADD MSTORE PUSH2 0x1568 DUP2 PUSH2 0x152F JUMP JUMPDEST SWAP1 POP SWAP2 SWAP1 POP JUMP JUMPDEST PUSH32 0x45717569706D656E74206973206E6F7420617661696C61626C652E0000000000 PUSH0 DUP3 ADD MSTORE POP JUMP JUMPDEST PUSH0 PUSH2 0x15A3 PUSH1 0x1B DUP4 PUSH2 0xE8E JUMP JUMPDEST SWAP2 POP PUSH2 0x15AE DUP3 PUSH2 0x156F JUMP JUMPDEST PUSH1 0x20 DUP3 ADD SWAP1 POP SWAP2 SWAP1 POP JUMP JUMPDEST PUSH0 PUSH1 0x20 DUP3 ADD SWAP1 POP DUP2 DUP2 SUB PUSH0 DUP4 ADD MSTORE PUSH2 0x15D0 DUP2 PUSH2 0x1597 JUMP JUMPDEST SWAP1 POP SWAP2 SWAP1 POP JUMP JUMPDEST PUSH32 0x45717569706D656E74206973206E6F74207265717565737465642E0000000000 PUSH0 DUP3 ADD MSTORE POP JUMP JUMPDEST PUSH0 PUSH2 0x160B PUSH1 0x1B DUP4 PUSH2 0xE8E JUMP JUMPDEST SWAP2 POP PUSH2 0x1616 DUP3 PUSH2 0x15D7 JUMP JUMPDEST PUSH1 0x20 DUP3 ADD SWAP1 POP SWAP2 SWAP1 POP JUMP JUMPDEST PUSH0 PUSH1 0x20 DUP3 ADD SWAP1 POP DUP2 DUP2 SUB PUSH0 DUP4 ADD MSTORE PUSH2 0x1638 DUP2 PUSH2 0x15FF JUMP JUMPDEST SWAP1 POP SWAP2 SWAP1 POP JUMP INVALID LOG2 PUSH5 0x6970667358 0x22 SLT KECCAK256 PUSH5 0x143041263D 0x23 0xD4 0xA6 JUMPF 0xB666 STATICCALL 0x2E 0xF6 SWAP14 0xCE DUP13 DUP10 PUSH12 0x1AA644869FAFD2552C46AB49 PUSH5 0x736F6C6343 STOP ADDMOD 0x1E STOP CALLER "
				},
				"gasEstimates": {
					"creation": {
						"codeDepositCost": "1149800",
						"executionCost": "25456",
						"totalCost": "1175256"
					},
					"external": {
						"addEquipment(string,string)": "infinite",
						"admin()": "2573",
						"approveRequest(uint256)": "32940",
						"equipmentCount()": "2426",
						"equipments(uint256)": "infinite",
						"getEquipment(uint256)": "infinite",
						"requestBorrow(uint256)": "55050",
						"returnEquipment(uint256)": "55127"
					}
				},
				"methodIdentifiers": {
					"addEquipment(string,string)": "51df75fe",
					"admin()": "f851a440",
					"approveRequest(uint256)": "d7d1bbdb",
					"equipmentCount()": "28512d2b",
					"equipments(uint256)": "a6efd620",
					"getEquipment(uint256)": "81dd2fa0",
					"requestBorrow(uint256)": "757680aa",
					"returnEquipment(uint256)": "6db64613"
				}
			},
			"storageLayout": {
				"storage": [
					{
						"astId": 19,
						"contract": "smart-contract/contracts/EquipmentManagement.sol:EquipmentManagement",
						"label": "admin",
						"offset": 0,
						"slot": "0",
						"type": "t_address"
					},
					{
						"astId": 21,
						"contract": "smart-contract/contracts/EquipmentManagement.sol:EquipmentManagement",
						"label": "equipmentCount",
						"offset": 0,
						"slot": "1",
						"type": "t_uint256"
					},
					{
						"astId": 26,
						"contract": "smart-contract/contracts/EquipmentManagement.sol:EquipmentManagement",
						"label": "equipments",
						"offset": 0,
						"slot": "2",
						"type": "t_mapping(t_uint256,t_struct(Equipment)17_storage)"
					}
				],
				"types": {
					"t_address": {
						"encoding": "inplace",
						"label": "address",
						"numberOfBytes": "20"
					},
					"t_enum(Status)5": {
						"encoding": "inplace",
						"label": "enum EquipmentManagement.Status",
						"numberOfBytes": "1"
					},
					"t_mapping(t_uint256,t_struct(Equipment)17_storage)": {
						"encoding": "mapping",
						"key": "t_uint256",
						"label": "mapping(uint256 => struct EquipmentManagement.Equipment)",
						"numberOfBytes": "32",
						"value": "t_struct(Equipment)17_storage"
					},
					"t_string_storage": {
						"encoding": "bytes",
						"label": "string",
						"numberOfBytes": "32"
					},
					"t_struct(Equipment)17_storage": {
						"encoding": "inplace",
						"label": "struct EquipmentManagement.Equipment",
						"members": [
							{
								"astId": 7,
								"contract": "smart-contract/contracts/EquipmentManagement.sol:EquipmentManagement",
								"label": "id",
								"offset": 0,
								"slot": "0",
								"type": "t_uint256"
							},
							{
								"astId": 9,
								"contract": "smart-contract/contracts/EquipmentManagement.sol:EquipmentManagement",
								"label": "name",
								"offset": 0,
								"slot": "1",
								"type": "t_string_storage"
							},
							{
								"astId": 11,
								"contract": "smart-contract/contracts/EquipmentManagement.sol:EquipmentManagement",
								"label": "category",
								"offset": 0,
								"slot": "2",
								"type": "t_string_storage"
							},
							{
								"astId": 14,
								"contract": "smart-contract/contracts/EquipmentManagement.sol:EquipmentManagement",
								"label": "status",
								"offset": 0,
								"slot": "3",
								"type": "t_enum(Status)5"
							},
							{
								"astId": 16,
								"contract": "smart-contract/contracts/EquipmentManagement.sol:EquipmentManagement",
								"label": "borrower",
								"offset": 1,
								"slot": "3",
								"type": "t_address"
							}
						],
						"numberOfBytes": "128"
					},
					"t_uint256": {
						"encoding": "inplace",
						"label": "uint256",
						"numberOfBytes": "32"
					}
				}
			},
			"userdoc": {
				"kind": "user",
				"methods": {},
				"version": 1
			}
		}
	}
}